{
  "contractName": "EventTest",
  "abi": [
    {
      "inputs": [],
      "stateMutability": "nonpayable",
      "type": "constructor"
    },
    {
      "anonymous": false,
      "inputs": [
        {
          "indexed": false,
          "internalType": "address",
          "name": "user",
          "type": "address"
        },
        {
          "indexed": false,
          "internalType": "uint256",
          "name": "tokenId",
          "type": "uint256"
        }
      ],
      "name": "AddTokenId",
      "type": "event"
    },
    {
      "anonymous": false,
      "inputs": [
        {
          "indexed": false,
          "internalType": "address",
          "name": "user",
          "type": "address"
        },
        {
          "indexed": false,
          "internalType": "uint256",
          "name": "tokenId",
          "type": "uint256"
        }
      ],
      "name": "CurrentTokenId",
      "type": "event"
    },
    {
      "anonymous": false,
      "inputs": [
        {
          "indexed": false,
          "internalType": "address",
          "name": "user",
          "type": "address"
        }
      ],
      "name": "TestCall",
      "type": "event"
    },
    {
      "inputs": [],
      "name": "addTokenId",
      "outputs": [
        {
          "internalType": "uint256",
          "name": "",
          "type": "uint256"
        }
      ],
      "stateMutability": "nonpayable",
      "type": "function"
    },
    {
      "inputs": [],
      "name": "currentTokenId",
      "outputs": [
        {
          "internalType": "uint256",
          "name": "",
          "type": "uint256"
        }
      ],
      "stateMutability": "nonpayable",
      "type": "function"
    },
    {
      "inputs": [],
      "name": "testCall",
      "outputs": [],
      "stateMutability": "nonpayable",
      "type": "function"
    }
  ],
  "bytecode": "0x608060405234801561001057600080fd5b5061019c806100206000396000f3fe608060405234801561001057600080fd5b50600436106100405760003560e01c80629a9b7b14610045578063744dab571461005f578063b7f0583614610067575b600080fd5b61004d610071565b60405190815260200160405180910390f35b61004d6100b7565b61006f61010a565b005b600080546040805133815260208101929092527f3369d1436d7b87c581c4e9d99c353f9fcfc8a6699e73c4ad812df9a9529c928791015b60405180910390a15060005490565b600060016000808282546100cb919061013f565b90915550506000546040805133815260208101929092527f7b6c04964b60818e7ab7f231d9c7a11b78f7267b6f0b280ad1dfbc618b2cdf0891016100a8565b6040513381527fcc3ff098ce8086fb76ecd608c50085b6cde644d750381832c3c90740d83d63729060200160405180910390a1565b8082018082111561016057634e487b7160e01b600052601160045260246000fd5b9291505056fea264697066735822122066ba8e901b98d5e2badcb27eff49109a061a37618395f02fd27b4c8b70aabd2464736f6c63430008110033",
  "immutableReferences": {},
  "source": "// SPDX-License-Identifier: MIT\r\npragma solidity ^0.8.4;\r\n\r\ncontract EventTest {\r\n  uint256 tokenId;\r\n\r\n  event TestCall(address user);\r\n  event AddTokenId(address user, uint256 tokenId);\r\n  event CurrentTokenId(address user, uint256 tokenId);\r\n  constructor() {}\r\n\r\n  function addTokenId() public returns(uint256) {\r\n    tokenId += 1;\r\n\r\n    emit AddTokenId(msg.sender, tokenId);\r\n    return tokenId;\r\n  }\r\n\r\n  function currentTokenId() public returns(uint256) {\r\n    emit CurrentTokenId(msg.sender, tokenId);\r\n    return tokenId;\r\n  }\r\n\r\n  function testCall() public {\r\n    emit TestCall(msg.sender);\r\n  }\r\n}",
  "sourcePath": "C:\\Users\\multicampus\\Desktop\\자율프로젝트\\S07P31B102\\Blockchain\\contracts\\EventTest.sol",
  "compiler": {
    "name": "solc",
    "version": "0.8.17+commit.8df45f5f.Emscripten.clang"
  },
  "schemaVersion": "3.4.10",
  "updatedAt": "2022-11-04T04:35:06.568Z",
  "networkType": "ethereum",
  "devdoc": {
    "kind": "dev",
    "methods": {},
    "version": 1
  },
  "userdoc": {
    "kind": "user",
    "methods": {},
    "version": 1
  }
}