{
  "contractName": "F_NFTSale",
  "abi": [
    {
      "inputs": [
        {
          "internalType": "address",
          "name": "_seller",
          "type": "address"
        },
        {
          "internalType": "address",
          "name": "_F_NFTCA",
          "type": "address"
        },
        {
          "internalType": "uint256",
          "name": "_amount",
          "type": "uint256"
        },
        {
          "internalType": "uint256",
          "name": "_price",
          "type": "uint256"
        }
      ],
      "stateMutability": "nonpayable",
      "type": "constructor"
    },
    {
      "anonymous": false,
      "inputs": [
        {
          "indexed": false,
          "internalType": "address",
          "name": "F_CA",
          "type": "address"
        },
        {
          "indexed": false,
          "internalType": "address",
          "name": "SaleCA",
          "type": "address"
        },
        {
          "indexed": false,
          "internalType": "address",
          "name": "seller",
          "type": "address"
        }
      ],
      "name": "CancelSale",
      "type": "event"
    },
    {
      "anonymous": false,
      "inputs": [
        {
          "indexed": false,
          "internalType": "address",
          "name": "F_CA",
          "type": "address"
        },
        {
          "indexed": false,
          "internalType": "address",
          "name": "SaleCA",
          "type": "address"
        },
        {
          "indexed": false,
          "internalType": "address",
          "name": "seller",
          "type": "address"
        },
        {
          "indexed": false,
          "internalType": "address",
          "name": "buyer",
          "type": "address"
        },
        {
          "indexed": false,
          "internalType": "uint256",
          "name": "buyAmount",
          "type": "uint256"
        },
        {
          "indexed": false,
          "internalType": "uint256",
          "name": "payValue",
          "type": "uint256"
        }
      ],
      "name": "Purchase",
      "type": "event"
    },
    {
      "inputs": [],
      "name": "F_NFTCA",
      "outputs": [
        {
          "internalType": "address",
          "name": "",
          "type": "address"
        }
      ],
      "stateMutability": "view",
      "type": "function"
    },
    {
      "inputs": [],
      "name": "F_NFTContract",
      "outputs": [
        {
          "internalType": "contract IFractionalizedNFT",
          "name": "",
          "type": "address"
        }
      ],
      "stateMutability": "view",
      "type": "function"
    },
    {
      "inputs": [],
      "name": "F_NFTContractERC20",
      "outputs": [
        {
          "internalType": "contract IERC20",
          "name": "",
          "type": "address"
        }
      ],
      "stateMutability": "view",
      "type": "function"
    },
    {
      "inputs": [],
      "name": "amount",
      "outputs": [
        {
          "internalType": "uint256",
          "name": "",
          "type": "uint256"
        }
      ],
      "stateMutability": "view",
      "type": "function"
    },
    {
      "inputs": [],
      "name": "price",
      "outputs": [
        {
          "internalType": "uint256",
          "name": "",
          "type": "uint256"
        }
      ],
      "stateMutability": "view",
      "type": "function"
    },
    {
      "inputs": [],
      "name": "seller",
      "outputs": [
        {
          "internalType": "address",
          "name": "",
          "type": "address"
        }
      ],
      "stateMutability": "view",
      "type": "function"
    },
    {
      "stateMutability": "payable",
      "type": "receive"
    },
    {
      "inputs": [
        {
          "internalType": "uint256",
          "name": "_amount",
          "type": "uint256"
        }
      ],
      "name": "purchase",
      "outputs": [],
      "stateMutability": "payable",
      "type": "function"
    },
    {
      "inputs": [],
      "name": "cancelSale",
      "outputs": [],
      "stateMutability": "nonpayable",
      "type": "function"
    },
    {
      "inputs": [],
      "name": "destruct",
      "outputs": [],
      "stateMutability": "nonpayable",
      "type": "function"
    },
    {
      "inputs": [],
      "name": "getBalance",
      "outputs": [
        {
          "internalType": "uint256",
          "name": "",
          "type": "uint256"
        }
      ],
      "stateMutability": "view",
      "type": "function"
    }
  ],
  "bytecode": "0x608060405234801561001057600080fd5b5060405161084538038061084583398101604081905261002f916100a2565b600080546001600160a01b039485166001600160a01b0319918216811790925560018054821683179055600280549690951695811695909517909355600380549094169092179092556004919091556005556100e5565b80516001600160a01b038116811461009d57600080fd5b919050565b600080600080608085870312156100b857600080fd5b6100c185610086565b93506100cf60208601610086565b6040860151606090960151949790965092505050565b610751806100f46000396000f3fe6080604052600436106100955760003560e01c8063a035b1fe11610059578063a035b1fe14610152578063aa8c217c14610168578063b21960241461017e578063e7e104901461019e578063efef39a1146101b357600080fd5b806308551a53146100a157806312065fe0146100de5780632b68b9c6146100fb57806358a5bf641461011257806372c244351461013257600080fd5b3661009c57005b600080fd5b3480156100ad57600080fd5b506002546100c1906001600160a01b031681565b6040516001600160a01b0390911681526020015b60405180910390f35b3480156100ea57600080fd5b50475b6040519081526020016100d5565b34801561010757600080fd5b506101106101c6565b005b34801561011e57600080fd5b506001546100c1906001600160a01b031681565b34801561013e57600080fd5b506000546100c1906001600160a01b031681565b34801561015e57600080fd5b506100ed60055481565b34801561017457600080fd5b506100ed60045481565b34801561018a57600080fd5b506003546100c1906001600160a01b031681565b3480156101aa57600080fd5b50610110610305565b6101106101c136600461067a565b610438565b6000546040516370a0823160e01b81523060048201526001600160a01b03909116906370a0823190602401602060405180830381865afa15801561020e573d6000803e3d6000fd5b505050506040513d601f19601f820116820180604052508101906102329190610693565b156102995760405162461bcd60e51b815260206004820152602c60248201527f4f6e6c792063616e206465737472756374207768656e20636f6e74726163742060448201526b686173206e6f20706965636560a01b60648201526084015b60405180910390fd5b600154604051630f2cd7bd60e21b81523060048201526001600160a01b0390911690633cb35ef490602401600060405180830381600087803b1580156102de57600080fd5b505af11580156102f2573d6000803e3d6000fd5b50506002546001600160a01b0316915050ff5b6002546001600160a01b0316331461035f5760405162461bcd60e51b815260206004820152601b60248201527f4f6e6c792073656c6c65722063616e2063616e63656c2073616c6500000000006044820152606401610290565b6000546004805460405163a9059cbb60e01b8152339281019290925260248201526001600160a01b039091169063a9059cbb906044016020604051808303816000875af11580156103b4573d6000803e3d6000fd5b505050506040513d601f19601f820116820180604052508101906103d891906106ac565b506000600455600354600254604080516001600160a01b0393841681523060208201529290911682820152517fd9b6a328868f7e8d317d22d8a06ed8853be50e49fa45fb32826e7efaef4b86519181900360600190a16104366101c6565b565b6004548111156104a05760405162461bcd60e51b815260206004820152602d60248201527f43616e277420627579206d6f726520706965636573207468616e20746865206e60448201526c756d6265722073656c6c696e6760981b6064820152608401610290565b6002546001600160a01b031633036104eb5760405162461bcd60e51b815260206004820152600e60248201526d43616e277420627579206d696e6560901b6044820152606401610290565b806005546104f991906106eb565b341461053b5760405162461bcd60e51b815260206004820152601160248201527050617920636f727265637420707269636560781b6044820152606401610290565b806004600082825461054d9190610708565b909155505060005460405163a9059cbb60e01b8152336004820152602481018390526001600160a01b039091169063a9059cbb906044016020604051808303816000875af11580156105a3573d6000803e3d6000fd5b505050506040513d601f19601f820116820180604052508101906105c791906106ac565b506002546040516001600160a01b03909116904780156108fc02916000818181858888f19350505050158015610601573d6000803e3d6000fd5b50600354600254604080516001600160a01b0393841681523060208201529290911682820152336060830152608082018390523460a0830152517fdccb5bce6e0213237e0f6a2b3fac1111566917989d8d207b69e82385a13a97599181900360c00190a1600454600003610677576106776101c6565b50565b60006020828403121561068c57600080fd5b5035919050565b6000602082840312156106a557600080fd5b5051919050565b6000602082840312156106be57600080fd5b815180151581146106ce57600080fd5b9392505050565b634e487b7160e01b600052601160045260246000fd5b8082028115828204841417610702576107026106d5565b92915050565b81810381811115610702576107026106d556fea2646970667358221220ace31402a3221cd8c32283d380ca19492fca00f4bb72a6a2facd22bcdc3b3aa364736f6c63430008110033",
  "immutableReferences": {},
  "source": "// SPDX-License-Identifier: MIT\r\npragma solidity ^0.8.4;\r\n\r\nimport \"../node_modules/@openzeppelin/contracts/token/ERC20/IERC20.sol\";\r\nimport \"./IFractionalizedNFT.sol\";\r\n\r\ncontract F_NFTSale{\r\n  IERC20 public F_NFTContractERC20;\r\n  IFractionalizedNFT public F_NFTContract;\r\n  address public seller;\r\n  address public F_NFTCA;\r\n  uint256 public amount;\r\n  uint256 public price;\r\n\r\n  // \r\n  event Purchase (\r\n    address F_CA,\r\n    address SaleCA,\r\n    address seller,\r\n    address buyer,\r\n    uint256 buyAmount,\r\n    uint256 payValue\r\n  );\r\n  event CancelSale (\r\n    address F_CA,\r\n    address SaleCA,\r\n    address seller\r\n  );\r\n  // event Check (\r\n  //   uint256 price\r\n  // );\r\n  // event Received(address, uint);\r\n\r\n  constructor (\r\n    address _seller,\r\n    address _F_NFTCA,\r\n    uint256 _amount,\r\n    uint256 _price\r\n  ) {\r\n    F_NFTContractERC20 = IERC20(_F_NFTCA);\r\n    F_NFTContract = IFractionalizedNFT(_F_NFTCA);\r\n    seller = _seller;\r\n    F_NFTCA = _F_NFTCA;\r\n    amount = _amount;\r\n    price = _price;\r\n  }\r\n\r\n  function purchase (uint256 _amount) external payable{\r\n    require(_amount <= amount, \"Can't buy more pieces than the number selling\");\r\n    // value  wei\r\n    require(msg.sender != seller, \"Can't buy mine\");\r\n    require(msg.value == (price * _amount), \"Pay correct price\");\r\n    amount -= _amount;\r\n    F_NFTContractERC20.transfer(msg.sender, _amount);\r\n    payable(seller).transfer(address(this).balance);\r\n\r\n    emit Purchase(F_NFTCA, address(this), seller, msg.sender, _amount, msg.value);\r\n    //           \r\n    if (amount == 0) {\r\n      destruct();\r\n    }\r\n  }\r\n\r\n  function cancelSale() external {\r\n    require(msg.sender == seller, \"Only seller can cancel sale\");\r\n    F_NFTContractERC20.transfer(msg.sender, amount);\r\n    amount = 0;\r\n\r\n    emit CancelSale(F_NFTCA, address(this), seller);\r\n    destruct();\r\n  }\r\n\r\n  function destruct() public {\r\n    require(F_NFTContractERC20.balanceOf(address(this)) == 0, \"Only can destruct when contract has no piece\");\r\n    F_NFTContract.removeSoldoutSaleCA(address(this));\r\n    selfdestruct(payable(seller));\r\n  }\r\n\r\n  function getBalance() public view returns (uint256) {\r\n    return address(this).balance;\r\n  }\r\n\r\n  //  ether    \r\n  receive() external payable {\r\n    // emit Received(msg.sender, msg.value);\r\n  }\r\n}",
  "sourcePath": "D:\\ssafy\\2\\\\S07P31B102\\Blockchain\\contracts\\F_NFTSale.sol",
  "compiler": {
    "name": "solc",
    "version": "0.8.17+commit.8df45f5f.Emscripten.clang"
  },
  "schemaVersion": "3.4.10",
  "updatedAt": "2022-11-12T16:10:01.449Z",
  "devdoc": {
    "kind": "dev",
    "methods": {},
    "version": 1
  },
  "userdoc": {
    "kind": "user",
    "methods": {},
    "version": 1
  }
}