{
  "contractName": "FractionalizedNFT",
  "abi": [
    {
      "inputs": [
        {
          "internalType": "address",
          "name": "_NFTCA",
          "type": "address"
        },
        {
          "internalType": "uint256",
          "name": "_tokenId",
          "type": "uint256"
        },
        {
          "internalType": "uint256",
          "name": "_amount",
          "type": "uint256"
        },
        {
          "internalType": "address",
          "name": "_creater",
          "type": "address"
        },
        {
          "internalType": "string",
          "name": "_name",
          "type": "string"
        },
        {
          "internalType": "string",
          "name": "_symbol",
          "type": "string"
        }
      ],
      "stateMutability": "nonpayable",
      "type": "constructor"
    },
    {
      "anonymous": false,
      "inputs": [
        {
          "indexed": true,
          "internalType": "address",
          "name": "owner",
          "type": "address"
        },
        {
          "indexed": true,
          "internalType": "address",
          "name": "spender",
          "type": "address"
        },
        {
          "indexed": false,
          "internalType": "uint256",
          "name": "value",
          "type": "uint256"
        }
      ],
      "name": "Approval",
      "type": "event"
    },
    {
      "anonymous": false,
      "inputs": [
        {
          "indexed": false,
          "internalType": "address",
          "name": "F_CA",
          "type": "address"
        },
        {
          "indexed": false,
          "internalType": "address",
          "name": "F_SaleCA",
          "type": "address"
        },
        {
          "indexed": false,
          "internalType": "address",
          "name": "seller",
          "type": "address"
        },
        {
          "indexed": false,
          "internalType": "uint256",
          "name": "amount",
          "type": "uint256"
        },
        {
          "indexed": false,
          "internalType": "uint256",
          "name": "price",
          "type": "uint256"
        }
      ],
      "name": "CreateSale",
      "type": "event"
    },
    {
      "anonymous": false,
      "inputs": [
        {
          "indexed": true,
          "internalType": "address",
          "name": "previousOwner",
          "type": "address"
        },
        {
          "indexed": true,
          "internalType": "address",
          "name": "newOwner",
          "type": "address"
        }
      ],
      "name": "OwnershipTransferred",
      "type": "event"
    },
    {
      "anonymous": false,
      "inputs": [
        {
          "indexed": true,
          "internalType": "address",
          "name": "from",
          "type": "address"
        },
        {
          "indexed": true,
          "internalType": "address",
          "name": "to",
          "type": "address"
        },
        {
          "indexed": false,
          "internalType": "uint256",
          "name": "value",
          "type": "uint256"
        }
      ],
      "name": "Transfer",
      "type": "event"
    },
    {
      "inputs": [],
      "name": "DOMAIN_SEPARATOR",
      "outputs": [
        {
          "internalType": "bytes32",
          "name": "",
          "type": "bytes32"
        }
      ],
      "stateMutability": "view",
      "type": "function"
    },
    {
      "inputs": [
        {
          "internalType": "address",
          "name": "",
          "type": "address"
        }
      ],
      "name": "F_NFTSaleAddress",
      "outputs": [
        {
          "internalType": "address",
          "name": "",
          "type": "address"
        }
      ],
      "stateMutability": "view",
      "type": "function"
    },
    {
      "inputs": [
        {
          "internalType": "uint256",
          "name": "",
          "type": "uint256"
        }
      ],
      "name": "F_NFTSaleCAs",
      "outputs": [
        {
          "internalType": "address",
          "name": "",
          "type": "address"
        }
      ],
      "stateMutability": "view",
      "type": "function"
    },
    {
      "inputs": [],
      "name": "NFTCA",
      "outputs": [
        {
          "internalType": "address",
          "name": "",
          "type": "address"
        }
      ],
      "stateMutability": "view",
      "type": "function"
    },
    {
      "inputs": [
        {
          "internalType": "address",
          "name": "owner",
          "type": "address"
        },
        {
          "internalType": "address",
          "name": "spender",
          "type": "address"
        }
      ],
      "name": "allowance",
      "outputs": [
        {
          "internalType": "uint256",
          "name": "",
          "type": "uint256"
        }
      ],
      "stateMutability": "view",
      "type": "function"
    },
    {
      "inputs": [],
      "name": "amount",
      "outputs": [
        {
          "internalType": "uint256",
          "name": "",
          "type": "uint256"
        }
      ],
      "stateMutability": "view",
      "type": "function"
    },
    {
      "inputs": [
        {
          "internalType": "address",
          "name": "spender",
          "type": "address"
        },
        {
          "internalType": "uint256",
          "name": "amount",
          "type": "uint256"
        }
      ],
      "name": "approve",
      "outputs": [
        {
          "internalType": "bool",
          "name": "",
          "type": "bool"
        }
      ],
      "stateMutability": "nonpayable",
      "type": "function"
    },
    {
      "inputs": [
        {
          "internalType": "address",
          "name": "account",
          "type": "address"
        }
      ],
      "name": "balanceOf",
      "outputs": [
        {
          "internalType": "uint256",
          "name": "",
          "type": "uint256"
        }
      ],
      "stateMutability": "view",
      "type": "function"
    },
    {
      "inputs": [],
      "name": "collection",
      "outputs": [
        {
          "internalType": "contract IERC721",
          "name": "",
          "type": "address"
        }
      ],
      "stateMutability": "view",
      "type": "function"
    },
    {
      "inputs": [],
      "name": "creater",
      "outputs": [
        {
          "internalType": "address",
          "name": "",
          "type": "address"
        }
      ],
      "stateMutability": "view",
      "type": "function"
    },
    {
      "inputs": [],
      "name": "decimals",
      "outputs": [
        {
          "internalType": "uint8",
          "name": "",
          "type": "uint8"
        }
      ],
      "stateMutability": "view",
      "type": "function"
    },
    {
      "inputs": [
        {
          "internalType": "address",
          "name": "spender",
          "type": "address"
        },
        {
          "internalType": "uint256",
          "name": "subtractedValue",
          "type": "uint256"
        }
      ],
      "name": "decreaseAllowance",
      "outputs": [
        {
          "internalType": "bool",
          "name": "",
          "type": "bool"
        }
      ],
      "stateMutability": "nonpayable",
      "type": "function"
    },
    {
      "inputs": [
        {
          "internalType": "address",
          "name": "spender",
          "type": "address"
        },
        {
          "internalType": "uint256",
          "name": "addedValue",
          "type": "uint256"
        }
      ],
      "name": "increaseAllowance",
      "outputs": [
        {
          "internalType": "bool",
          "name": "",
          "type": "bool"
        }
      ],
      "stateMutability": "nonpayable",
      "type": "function"
    },
    {
      "inputs": [],
      "name": "initialized",
      "outputs": [
        {
          "internalType": "bool",
          "name": "",
          "type": "bool"
        }
      ],
      "stateMutability": "view",
      "type": "function"
    },
    {
      "inputs": [],
      "name": "name",
      "outputs": [
        {
          "internalType": "string",
          "name": "",
          "type": "string"
        }
      ],
      "stateMutability": "view",
      "type": "function"
    },
    {
      "inputs": [
        {
          "internalType": "address",
          "name": "owner",
          "type": "address"
        }
      ],
      "name": "nonces",
      "outputs": [
        {
          "internalType": "uint256",
          "name": "",
          "type": "uint256"
        }
      ],
      "stateMutability": "view",
      "type": "function"
    },
    {
      "inputs": [
        {
          "internalType": "address",
          "name": "",
          "type": "address"
        },
        {
          "internalType": "address",
          "name": "",
          "type": "address"
        },
        {
          "internalType": "uint256",
          "name": "",
          "type": "uint256"
        },
        {
          "internalType": "bytes",
          "name": "",
          "type": "bytes"
        }
      ],
      "name": "onERC721Received",
      "outputs": [
        {
          "internalType": "bytes4",
          "name": "",
          "type": "bytes4"
        }
      ],
      "stateMutability": "nonpayable",
      "type": "function"
    },
    {
      "inputs": [],
      "name": "owner",
      "outputs": [
        {
          "internalType": "address",
          "name": "",
          "type": "address"
        }
      ],
      "stateMutability": "view",
      "type": "function"
    },
    {
      "inputs": [
        {
          "internalType": "address",
          "name": "owner",
          "type": "address"
        },
        {
          "internalType": "address",
          "name": "spender",
          "type": "address"
        },
        {
          "internalType": "uint256",
          "name": "value",
          "type": "uint256"
        },
        {
          "internalType": "uint256",
          "name": "deadline",
          "type": "uint256"
        },
        {
          "internalType": "uint8",
          "name": "v",
          "type": "uint8"
        },
        {
          "internalType": "bytes32",
          "name": "r",
          "type": "bytes32"
        },
        {
          "internalType": "bytes32",
          "name": "s",
          "type": "bytes32"
        }
      ],
      "name": "permit",
      "outputs": [],
      "stateMutability": "nonpayable",
      "type": "function"
    },
    {
      "inputs": [],
      "name": "renounceOwnership",
      "outputs": [],
      "stateMutability": "nonpayable",
      "type": "function"
    },
    {
      "inputs": [
        {
          "internalType": "address",
          "name": "",
          "type": "address"
        }
      ],
      "name": "sellerAddress",
      "outputs": [
        {
          "internalType": "address",
          "name": "",
          "type": "address"
        }
      ],
      "stateMutability": "view",
      "type": "function"
    },
    {
      "inputs": [],
      "name": "symbol",
      "outputs": [
        {
          "internalType": "string",
          "name": "",
          "type": "string"
        }
      ],
      "stateMutability": "view",
      "type": "function"
    },
    {
      "inputs": [],
      "name": "tokenId",
      "outputs": [
        {
          "internalType": "uint256",
          "name": "",
          "type": "uint256"
        }
      ],
      "stateMutability": "view",
      "type": "function"
    },
    {
      "inputs": [],
      "name": "totalSupply",
      "outputs": [
        {
          "internalType": "uint256",
          "name": "",
          "type": "uint256"
        }
      ],
      "stateMutability": "view",
      "type": "function"
    },
    {
      "inputs": [
        {
          "internalType": "address",
          "name": "to",
          "type": "address"
        },
        {
          "internalType": "uint256",
          "name": "amount",
          "type": "uint256"
        }
      ],
      "name": "transfer",
      "outputs": [
        {
          "internalType": "bool",
          "name": "",
          "type": "bool"
        }
      ],
      "stateMutability": "nonpayable",
      "type": "function"
    },
    {
      "inputs": [
        {
          "internalType": "address",
          "name": "from",
          "type": "address"
        },
        {
          "internalType": "address",
          "name": "to",
          "type": "address"
        },
        {
          "internalType": "uint256",
          "name": "amount",
          "type": "uint256"
        }
      ],
      "name": "transferFrom",
      "outputs": [
        {
          "internalType": "bool",
          "name": "",
          "type": "bool"
        }
      ],
      "stateMutability": "nonpayable",
      "type": "function"
    },
    {
      "inputs": [
        {
          "internalType": "address",
          "name": "newOwner",
          "type": "address"
        }
      ],
      "name": "transferOwnership",
      "outputs": [],
      "stateMutability": "nonpayable",
      "type": "function"
    },
    {
      "inputs": [],
      "name": "initialize",
      "outputs": [],
      "stateMutability": "nonpayable",
      "type": "function"
    },
    {
      "inputs": [
        {
          "internalType": "uint256",
          "name": "_amount",
          "type": "uint256"
        },
        {
          "internalType": "uint256",
          "name": "_price",
          "type": "uint256"
        }
      ],
      "name": "createSale",
      "outputs": [
        {
          "internalType": "address",
          "name": "",
          "type": "address"
        }
      ],
      "stateMutability": "nonpayable",
      "type": "function"
    },
    {
      "inputs": [
        {
          "internalType": "address",
          "name": "_SaleCA",
          "type": "address"
        }
      ],
      "name": "removeSoldoutSaleCA",
      "outputs": [],
      "stateMutability": "nonpayable",
      "type": "function"
    },
    {
      "inputs": [],
      "name": "allSaleCAs",
      "outputs": [
        {
          "internalType": "address[]",
          "name": "",
          "type": "address[]"
        }
      ],
      "stateMutability": "view",
      "type": "function"
    },
    {
      "inputs": [],
      "name": "getBalance",
      "outputs": [
        {
          "internalType": "uint256",
          "name": "",
          "type": "uint256"
        }
      ],
      "stateMutability": "view",
      "type": "function"
    }
  ],
  "bytecode": "0x610140604052600c805460ff60a01b191690553480156200001f57600080fd5b5060405162002a2038038062002a208339810160408190526200004291620003cc565b6040805180820190915260018152603160f81b602082015282908190818460036200006e8382620004fd565b5060046200007d8282620004fd565b5050506200009a620000946200029460201b60201c565b62000298565b815160208084019190912082518383012060e08290526101008190524660a0818152604080517f8b73c3c69bb8fe3d512ecc4cf759cc79239f7b179b0ffacaa9a75d522b39400f81880181905281830187905260608201869052608082019490945230818401528151808203909301835260c00190528051940193909320919290916080523060c052610120525050600880546001600160a01b0319166001600160a01b038b81169182179092556040516331a9108f60e11b8152600481018b905291881694509250636352211e9150602401602060405180830381865afa1580156200018b573d6000803e3d6000fd5b505050506040513d601f19601f82011682018060405250810190620001b19190620005c9565b6001600160a01b031614620002025760405162461bcd60e51b81526020600482015260126024820152712737ba1037bbb732b91037b3103a37b5b2b760711b60448201526064015b60405180910390fd5b60008411620002545760405162461bcd60e51b815260206004820152601e60248201527f416d6f756e74206e6565647320746f206265206d6f7265207468616e203000006044820152606401620001f9565b5050600980546001600160a01b039586166001600160a01b031991821617909155600b93909355600a91909155600c8054919093169116179055620005ee565b3390565b600580546001600160a01b038381166001600160a01b0319831681179093556040519116919082907f8be0079c531659141344cd1fd0a4f28419497f9722a3daafe3b4186f6b6457e090600090a35050565b80516001600160a01b03811681146200030257600080fd5b919050565b634e487b7160e01b600052604160045260246000fd5b600082601f8301126200032f57600080fd5b81516001600160401b03808211156200034c576200034c62000307565b604051601f8301601f19908116603f0116810190828211818310171562000377576200037762000307565b816040528381526020925086838588010111156200039457600080fd5b600091505b83821015620003b8578582018301518183018401529082019062000399565b600093810190920192909252949350505050565b60008060008060008060c08789031215620003e657600080fd5b620003f187620002ea565b955060208701519450604087015193506200040f60608801620002ea565b60808801519093506001600160401b03808211156200042d57600080fd5b6200043b8a838b016200031d565b935060a08901519150808211156200045257600080fd5b506200046189828a016200031d565b9150509295509295509295565b600181811c908216806200048357607f821691505b602082108103620004a457634e487b7160e01b600052602260045260246000fd5b50919050565b601f821115620004f857600081815260208120601f850160051c81016020861015620004d35750805b601f850160051c820191505b81811015620004f457828155600101620004df565b5050505b505050565b81516001600160401b0381111562000519576200051962000307565b62000531816200052a84546200046e565b84620004aa565b602080601f831160018114620005695760008415620005505750858301515b600019600386901b1c1916600185901b178555620004f4565b600085815260208120601f198616915b828110156200059a5788860151825594840194600190910190840162000579565b5085821015620005b95787850151600019600388901b60f8161c191681555b5050505050600190811b01905550565b600060208284031215620005dc57600080fd5b620005e782620002ea565b9392505050565b60805160a05160c05160e05161010051610120516123e26200063e60003960006111ae015260006111fd015260006111d80152600061112f0152600061115a0152600061118501526123e26000f3fe60806040523480156200001157600080fd5b5060043610620002195760003560e01c8063715018a61162000125578063a3f69cad11620000af578063d505accf116200007a578063d505accf14620004b0578063dd62ed3e14620004c7578063e140289714620004de578063f2fde38b146200050a57600080fd5b8063a3f69cad1462000464578063a457c2d71462000478578063a9059cbb146200048f578063aa8c217c14620004a657600080fd5b80637ecebe0011620000f05780637ecebe0014620004275780638129fc1c146200043e5780638da5cb5b146200044857806395d89b41146200045a57600080fd5b8063715018a614620003d95780637843fd4514620003e35780637de1e53614620003fc5780637e508682146200041057600080fd5b8063313ce56711620001a75780634404faf911620001725780634404faf9146200033d57806345653a6d14620003825780636019061b146200039657806370a0823114620003ad57600080fd5b8063313ce56714620002f35780633644e515146200030357806339509351146200030d5780633cb35ef4146200032457600080fd5b8063158ef93e11620001e8578063158ef93e14620002b457806317d70f7c14620002c957806318160ddd14620002d357806323b872dd14620002dc57600080fd5b806306fdde03146200021e578063095ea7b3146200024057806312065fe01462000268578063150b7a021462000279575b600080fd5b6200022862000521565b60405162000237919062001754565b60405180910390f35b6200025762000251366004620017c1565b620005bb565b604051901515815260200162000237565b475b60405190815260200162000237565b6200029a6200028a36600462001804565b630a85bd0160e11b949350505050565b6040516001600160e01b0319909116815260200162000237565b600c546200025790600160a01b900460ff1681565b6200026a600b5481565b6002546200026a565b62000257620002ed366004620018ee565b620005d7565b6040516012815260200162000237565b6200026a620005ff565b620002576200031e366004620017c1565b62000610565b6200033b620003353660046200192f565b62000638565b005b620003696200034e3660046200192f565b600e602052600090815260409020546001600160a01b031681565b6040516001600160a01b03909116815260200162000237565b600c5462000369906001600160a01b031681565b62000369620003a736600462001954565b620007a6565b6200026a620003be3660046200192f565b6001600160a01b031660009081526020819052604090205490565b6200033b620008ec565b620003ed62000904565b60405162000237919062001977565b60085462000369906001600160a01b031681565b6200036962000421366004620019c6565b62000967565b6200026a620004383660046200192f565b62000992565b6200033b620009b1565b6005546001600160a01b031662000369565b6200022862000ae5565b60095462000369906001600160a01b031681565b6200025762000489366004620017c1565b62000af6565b62000257620004a0366004620017c1565b62000b77565b6200026a600a5481565b6200033b620004c1366004620019e0565b62000b87565b6200026a620004d836600462001a59565b62000cf7565b62000369620004ef3660046200192f565b600f602052600090815260409020546001600160a01b031681565b6200033b6200051b3660046200192f565b62000d22565b606060038054620005329062001a91565b80601f0160208091040260200160405190810160405280929190818152602001828054620005609062001a91565b8015620005b15780601f106200058557610100808354040283529160200191620005b1565b820191906000526020600020905b8154815290600101906020018083116200059357829003601f168201915b5050505050905090565b600033620005cb81858562000da1565b60019150505b92915050565b600033620005e785828562000ec9565b620005f485858562000f4a565b506001949350505050565b60006200060b62001122565b905090565b600033620005cb81858562000626838362000cf7565b62000632919062001add565b62000da1565b336001600160a01b038216146200068b5760405162461bcd60e51b815260206004820152601260248201527127b7363c903932b6b7bb329036bcb9b2b63360711b60448201526064015b60405180910390fd5b60005b600d54811015620007a257816001600160a01b0316600d8281548110620006b957620006b962001af3565b6000918252602090912001546001600160a01b0316036200078d57600d8054620006e69060019062001b09565b81548110620006f957620006f962001af3565b600091825260209091200154600d80546001600160a01b03909216918390811062000728576200072862001af3565b9060005260206000200160006101000a8154816001600160a01b0302191690836001600160a01b03160217905550600d8054806200076a576200076a62001b1f565b600082815260209020810160001990810180546001600160a01b03191690550190555b80620007998162001b35565b9150506200068e565b5050565b60008033308585604051620007bb9062001746565b6001600160a01b03948516815293909216602084015260408301526060820152608001604051809103906000f080158015620007fb573d6000803e3d6000fd5b50600d80546001810182556000919091527fd7b6990105719101dabeb77144f2a3385c8033acd3af97e9423a695e81ad1eb50180546001600160a01b0319166001600160a01b038316179055905062000855818562000b77565b506001600160a01b0381166000818152600e602090815260408083208054336001600160a01b03199182168117909255818552600f845293829020805490941685179093558051308152918201939093529182015260608101859052608081018490527ff800216b49e9f4066dd1d33ae81712cebc8643f9aa20ad16aa348eae951825a79060a00160405180910390a19392505050565b620008f66200124b565b620009026000620012a7565b565b6060600d805480602002602001604051908101604052809291908181526020018280548015620005b157602002820191906000526020600020905b81546001600160a01b031681526001909101906020018083116200093f575050505050905090565b600d81815481106200097857600080fd5b6000918252602090912001546001600160a01b0316905081565b6001600160a01b038116600090815260066020526040812054620005d1565b600c546001600160a01b0316331462000a005760405162461bcd60e51b815260206004820152601060248201526f21b0b71037b7363c9031b932b0ba32b960811b604482015260640162000682565b600c54600160a01b900460ff161562000a525760405162461bcd60e51b8152602060048201526013602482015272105b1c9958591e481a5b9a5d1a585b1a5e9959606a1b604482015260640162000682565b600854600b54604051632142170760e11b815233600482015230602482015260448101919091526001600160a01b03909116906342842e0e90606401600060405180830381600087803b15801562000aa957600080fd5b505af115801562000abe573d6000803e3d6000fd5b5050600c805460ff60a01b1916600160a01b1790555050600a5462000902903390620012f9565b606060048054620005329062001a91565b6000338162000b06828662000cf7565b90508381101562000b685760405162461bcd60e51b815260206004820152602560248201527f45524332303a2064656372656173656420616c6c6f77616e63652062656c6f77604482015264207a65726f60d81b606482015260840162000682565b620005f4828686840362000da1565b600033620005cb81858562000f4a565b8342111562000bd95760405162461bcd60e51b815260206004820152601d60248201527f45524332305065726d69743a206578706972656420646561646c696e65000000604482015260640162000682565b60007f6e71edae12b1b97f4d1f60370fef10105fa2faae0126114a169c64845d6126c988888862000c0a8c620013de565b6040805160208101969096526001600160a01b0394851690860152929091166060840152608083015260a082015260c0810186905260e001604051602081830303815290604052805190602001209050600062000c678262001406565b9050600062000c798287878762001457565b9050896001600160a01b0316816001600160a01b03161462000cde5760405162461bcd60e51b815260206004820152601e60248201527f45524332305065726d69743a20696e76616c6964207369676e61747572650000604482015260640162000682565b62000ceb8a8a8a62000da1565b50505050505050505050565b6001600160a01b03918216600090815260016020908152604080832093909416825291909152205490565b62000d2c6200124b565b6001600160a01b03811662000d935760405162461bcd60e51b815260206004820152602660248201527f4f776e61626c653a206e6577206f776e657220697320746865207a65726f206160448201526564647265737360d01b606482015260840162000682565b62000d9e81620012a7565b50565b6001600160a01b03831662000e055760405162461bcd60e51b8152602060048201526024808201527f45524332303a20617070726f76652066726f6d20746865207a65726f206164646044820152637265737360e01b606482015260840162000682565b6001600160a01b03821662000e685760405162461bcd60e51b815260206004820152602260248201527f45524332303a20617070726f766520746f20746865207a65726f206164647265604482015261737360f01b606482015260840162000682565b6001600160a01b0383811660008181526001602090815260408083209487168084529482529182902085905590518481527f8c5be1e5ebec7d5bd14f71427d1e84f3dd0314c0f7b2291e5b200ac8c7c3b925910160405180910390a3505050565b600062000ed7848462000cf7565b9050600019811462000f44578181101562000f355760405162461bcd60e51b815260206004820152601d60248201527f45524332303a20696e73756666696369656e7420616c6c6f77616e6365000000604482015260640162000682565b62000f44848484840362000da1565b50505050565b6001600160a01b03831662000fb05760405162461bcd60e51b815260206004820152602560248201527f45524332303a207472616e736665722066726f6d20746865207a65726f206164604482015264647265737360d81b606482015260840162000682565b6001600160a01b038216620010145760405162461bcd60e51b815260206004820152602360248201527f45524332303a207472616e7366657220746f20746865207a65726f206164647260448201526265737360e81b606482015260840162000682565b6001600160a01b038316600090815260208190526040902054818110156200108e5760405162461bcd60e51b815260206004820152602660248201527f45524332303a207472616e7366657220616d6f756e7420657863656564732062604482015265616c616e636560d01b606482015260840162000682565b6001600160a01b03808516600090815260208190526040808220858503905591851681529081208054849290620010c790849062001add565b92505081905550826001600160a01b0316846001600160a01b03167fddf252ad1be2c89b69c2b068fc378daa952ba7f163c4a11628f55a4df523b3ef846040516200111491815260200190565b60405180910390a362000f44565b6000306001600160a01b037f0000000000000000000000000000000000000000000000000000000000000000161480156200117c57507f000000000000000000000000000000000000000000000000000000000000000046145b15620011a757507f000000000000000000000000000000000000000000000000000000000000000090565b50604080517f00000000000000000000000000000000000000000000000000000000000000006020808301919091527f0000000000000000000000000000000000000000000000000000000000000000828401527f000000000000000000000000000000000000000000000000000000000000000060608301524660808301523060a0808401919091528351808403909101815260c0909201909252805191012090565b6005546001600160a01b03163314620009025760405162461bcd60e51b815260206004820181905260248201527f4f776e61626c653a2063616c6c6572206973206e6f7420746865206f776e6572604482015260640162000682565b600580546001600160a01b038381166001600160a01b0319831681179093556040519116919082907f8be0079c531659141344cd1fd0a4f28419497f9722a3daafe3b4186f6b6457e090600090a35050565b6001600160a01b038216620013515760405162461bcd60e51b815260206004820152601f60248201527f45524332303a206d696e7420746f20746865207a65726f206164647265737300604482015260640162000682565b806002600082825462001365919062001add565b90915550506001600160a01b038216600090815260208190526040812080548392906200139490849062001add565b90915550506040518181526001600160a01b038316906000907fddf252ad1be2c89b69c2b068fc378daa952ba7f163c4a11628f55a4df523b3ef9060200160405180910390a35050565b6001600160a01b03811660009081526006602052604090208054600181018255905b50919050565b6000620005d16200141662001122565b8360405161190160f01b6020820152602281018390526042810182905260009060620160405160208183030381529060405280519060200120905092915050565b60008060006200146a8787878762001483565b91509150620014798162001578565b5095945050505050565b6000807f7fffffffffffffffffffffffffffffff5d576e7357a4501ddfe92f46681b20a0831115620014bc57506000905060036200156f565b8460ff16601b14158015620014d557508460ff16601c14155b15620014e857506000905060046200156f565b6040805160008082526020820180845289905260ff881692820192909252606081018690526080810185905260019060a0016020604051602081039080840390855afa1580156200153d573d6000803e3d6000fd5b5050604051601f1901519150506001600160a01b03811662001568576000600192509250506200156f565b9150600090505b94509492505050565b60008160048111156200158f576200158f62001b51565b03620015985750565b6001816004811115620015af57620015af62001b51565b03620015fe5760405162461bcd60e51b815260206004820152601860248201527f45434453413a20696e76616c6964207369676e61747572650000000000000000604482015260640162000682565b600281600481111562001615576200161562001b51565b03620016645760405162461bcd60e51b815260206004820152601f60248201527f45434453413a20696e76616c6964207369676e6174757265206c656e67746800604482015260640162000682565b60038160048111156200167b576200167b62001b51565b03620016d55760405162461bcd60e51b815260206004820152602260248201527f45434453413a20696e76616c6964207369676e6174757265202773272076616c604482015261756560f01b606482015260840162000682565b6004816004811115620016ec57620016ec62001b51565b0362000d9e5760405162461bcd60e51b815260206004820152602260248201527f45434453413a20696e76616c6964207369676e6174757265202776272076616c604482015261756560f01b606482015260840162000682565b6108458062001b6883390190565b600060208083528351808285015260005b81811015620017835785810183015185820160400152820162001765565b506000604082860101526040601f19601f8301168501019250505092915050565b80356001600160a01b0381168114620017bc57600080fd5b919050565b60008060408385031215620017d557600080fd5b620017e083620017a4565b946020939093013593505050565b634e487b7160e01b600052604160045260246000fd5b600080600080608085870312156200181b57600080fd5b6200182685620017a4565b93506200183660208601620017a4565b925060408501359150606085013567ffffffffffffffff808211156200185b57600080fd5b818701915087601f8301126200187057600080fd5b813581811115620018855762001885620017ee565b604051601f8201601f19908116603f01168101908382118183101715620018b057620018b0620017ee565b816040528281528a6020848701011115620018ca57600080fd5b82602086016020830137600060208483010152809550505050505092959194509250565b6000806000606084860312156200190457600080fd5b6200190f84620017a4565b92506200191f60208501620017a4565b9150604084013590509250925092565b6000602082840312156200194257600080fd5b6200194d82620017a4565b9392505050565b600080604083850312156200196857600080fd5b50508035926020909101359150565b6020808252825182820181905260009190848201906040850190845b81811015620019ba5783516001600160a01b03168352928401929184019160010162001993565b50909695505050505050565b600060208284031215620019d957600080fd5b5035919050565b600080600080600080600060e0888a031215620019fc57600080fd5b62001a0788620017a4565b965062001a1760208901620017a4565b95506040880135945060608801359350608088013560ff8116811462001a3c57600080fd5b9699959850939692959460a0840135945060c09093013592915050565b6000806040838503121562001a6d57600080fd5b62001a7883620017a4565b915062001a8860208401620017a4565b90509250929050565b600181811c9082168062001aa657607f821691505b6020821081036200140057634e487b7160e01b600052602260045260246000fd5b634e487b7160e01b600052601160045260246000fd5b80820180821115620005d157620005d162001ac7565b634e487b7160e01b600052603260045260246000fd5b81810381811115620005d157620005d162001ac7565b634e487b7160e01b600052603160045260246000fd5b60006001820162001b4a5762001b4a62001ac7565b5060010190565b634e487b7160e01b600052602160045260246000fdfe608060405234801561001057600080fd5b5060405161084538038061084583398101604081905261002f916100a2565b600080546001600160a01b039485166001600160a01b0319918216811790925560018054821683179055600280549690951695811695909517909355600380549094169092179092556004919091556005556100e5565b80516001600160a01b038116811461009d57600080fd5b919050565b600080600080608085870312156100b857600080fd5b6100c185610086565b93506100cf60208601610086565b6040860151606090960151949790965092505050565b610751806100f46000396000f3fe6080604052600436106100955760003560e01c8063a035b1fe11610059578063a035b1fe14610152578063aa8c217c14610168578063b21960241461017e578063e7e104901461019e578063efef39a1146101b357600080fd5b806308551a53146100a157806312065fe0146100de5780632b68b9c6146100fb57806358a5bf641461011257806372c244351461013257600080fd5b3661009c57005b600080fd5b3480156100ad57600080fd5b506002546100c1906001600160a01b031681565b6040516001600160a01b0390911681526020015b60405180910390f35b3480156100ea57600080fd5b50475b6040519081526020016100d5565b34801561010757600080fd5b506101106101c6565b005b34801561011e57600080fd5b506001546100c1906001600160a01b031681565b34801561013e57600080fd5b506000546100c1906001600160a01b031681565b34801561015e57600080fd5b506100ed60055481565b34801561017457600080fd5b506100ed60045481565b34801561018a57600080fd5b506003546100c1906001600160a01b031681565b3480156101aa57600080fd5b50610110610305565b6101106101c136600461067a565b610438565b6000546040516370a0823160e01b81523060048201526001600160a01b03909116906370a0823190602401602060405180830381865afa15801561020e573d6000803e3d6000fd5b505050506040513d601f19601f820116820180604052508101906102329190610693565b156102995760405162461bcd60e51b815260206004820152602c60248201527f4f6e6c792063616e206465737472756374207768656e20636f6e74726163742060448201526b686173206e6f20706965636560a01b60648201526084015b60405180910390fd5b600154604051630f2cd7bd60e21b81523060048201526001600160a01b0390911690633cb35ef490602401600060405180830381600087803b1580156102de57600080fd5b505af11580156102f2573d6000803e3d6000fd5b50506002546001600160a01b0316915050ff5b6002546001600160a01b0316331461035f5760405162461bcd60e51b815260206004820152601b60248201527f4f6e6c792073656c6c65722063616e2063616e63656c2073616c6500000000006044820152606401610290565b6000546004805460405163a9059cbb60e01b8152339281019290925260248201526001600160a01b039091169063a9059cbb906044016020604051808303816000875af11580156103b4573d6000803e3d6000fd5b505050506040513d601f19601f820116820180604052508101906103d891906106ac565b506000600455600354600254604080516001600160a01b0393841681523060208201529290911682820152517fd9b6a328868f7e8d317d22d8a06ed8853be50e49fa45fb32826e7efaef4b86519181900360600190a16104366101c6565b565b6004548111156104a05760405162461bcd60e51b815260206004820152602d60248201527f43616e277420627579206d6f726520706965636573207468616e20746865206e60448201526c756d6265722073656c6c696e6760981b6064820152608401610290565b6002546001600160a01b031633036104eb5760405162461bcd60e51b815260206004820152600e60248201526d43616e277420627579206d696e6560901b6044820152606401610290565b806005546104f991906106eb565b341461053b5760405162461bcd60e51b815260206004820152601160248201527050617920636f727265637420707269636560781b6044820152606401610290565b806004600082825461054d9190610708565b909155505060005460405163a9059cbb60e01b8152336004820152602481018390526001600160a01b039091169063a9059cbb906044016020604051808303816000875af11580156105a3573d6000803e3d6000fd5b505050506040513d601f19601f820116820180604052508101906105c791906106ac565b506002546040516001600160a01b03909116904780156108fc02916000818181858888f19350505050158015610601573d6000803e3d6000fd5b50600354600254604080516001600160a01b0393841681523060208201529290911682820152336060830152608082018390523460a0830152517fdccb5bce6e0213237e0f6a2b3fac1111566917989d8d207b69e82385a13a97599181900360c00190a1600454600003610677576106776101c6565b50565b60006020828403121561068c57600080fd5b5035919050565b6000602082840312156106a557600080fd5b5051919050565b6000602082840312156106be57600080fd5b815180151581146106ce57600080fd5b9392505050565b634e487b7160e01b600052601160045260246000fd5b8082028115828204841417610702576107026106d5565b92915050565b81810381811115610702576107026106d556fea2646970667358221220ace31402a3221cd8c32283d380ca19492fca00f4bb72a6a2facd22bcdc3b3aa364736f6c63430008110033a2646970667358221220e2c73620e15d7e5e496ce7f4da5e31c29dae03aed1466aa1e0f92b5a6973a4b964736f6c63430008110033",
  "immutableReferences": {
    "4335": [
      {
        "length": 32,
        "start": 4485
      }
    ],
    "4337": [
      {
        "length": 32,
        "start": 4442
      }
    ],
    "4339": [
      {
        "length": 32,
        "start": 4399
      }
    ],
    "4341": [
      {
        "length": 32,
        "start": 4568
      }
    ],
    "4343": [
      {
        "length": 32,
        "start": 4605
      }
    ],
    "4345": [
      {
        "length": 32,
        "start": 4526
      }
    ]
  },
  "source": "// SPDX-License-Identifier: MIT\r\npragma solidity ^0.8.4;\r\n\r\nimport \"../node_modules/@openzeppelin/contracts/token/ERC20/ERC20.sol\";\r\nimport \"../node_modules/@openzeppelin/contracts/token/ERC721/IERC721.sol\";\r\nimport \"../node_modules/@openzeppelin/contracts/access/Ownable.sol\";\r\nimport \"../node_modules/@openzeppelin/contracts/token/ERC20/extensions/draft-ERC20Permit.sol\";\r\nimport \"../node_modules/@openzeppelin/contracts/token/ERC721/utils/ERC721Holder.sol\";\r\nimport \"./F_NFTSale.sol\";\r\n// import \"./IF_Sale.sol\";\r\n\r\n//    \r\ncontract FractionalizedNFT is ERC20, Ownable, ERC20Permit, ERC721Holder {\r\n  //   \r\n  IERC721 public collection;\r\n  address public NFTCA;\r\n  uint256 public amount;\r\n  uint256 public tokenId;\r\n  address public creater;\r\n  bool public initialized = false;\r\n  // IF_Sale public SaleContract;\r\n\r\n  //     \r\n  address[] public F_NFTSaleCAs;\r\n  mapping(address => address) public sellerAddress;\r\n  mapping(address => address) public F_NFTSaleAddress;\r\n\r\n  //      \r\n  // address[] public partyAddresses;\r\n  // uint256 partyAddressesLength;\r\n  // mapping(address => uint256) partyAddressesIdx;\r\n\r\n  //   \r\n  // uint256 public auctionEndTime;\r\n  // uint256 public minimumPrice;\r\n\r\n  // address public highestBidder;\r\n  // uint256 public highestBid;\r\n\r\n  // bool public auctionStatus = false;\r\n  // bool public ended = false;\r\n\r\n  // \r\n  event CreateSale (\r\n    address F_CA,\r\n    address F_SaleCA,\r\n    address seller,\r\n    uint256 amount,\r\n    uint256 price\r\n  );\r\n  // event StartAuc (\r\n  //   address F_CA,\r\n  //   uint256 minimumPrice,\r\n  //   bool auctionStatus\r\n  // );\r\n  // event CancelAuc (address F_CA, bool auctionStatus);\r\n  // event HighestBidIncreased (\r\n  //   address F_CA, \r\n  //   address preBidder, \r\n  //   uint256 preAmount, \r\n  //   address bidder, \r\n  //   uint256 amount\r\n  // );\r\n  // event EndAuc (address F_CA, bool ended);\r\n  // event Burn (address user, uint256 amount);\r\n  // event Check (uint256 amount, address[] users, uint256 index);\r\n  \r\n  constructor(\r\n    address _NFTCA, \r\n    uint256 _tokenId, \r\n    uint256 _amount, \r\n    address _creater, \r\n    string memory _name, \r\n    string memory _symbol\r\n  ) \r\n    ERC20(_name, _symbol) ERC20Permit(_name) {\r\n      collection = IERC721(_NFTCA);\r\n      \r\n      require(collection.ownerOf(_tokenId) == _creater, \"Not owner of token\");\r\n      require(_amount > 0, \"Amount needs to be more than 0\");\r\n\r\n      NFTCA = _NFTCA;\r\n      tokenId = _tokenId;\r\n      amount = _amount;\r\n      creater = _creater;\r\n    }\r\n  \r\n  //  ,   ,      \r\n  //    NFT  setAprrovalAll  \r\n  // NFT  ()   ,    \r\n  function initialize() external {\r\n    require(msg.sender == creater, \"Can only creater\");\r\n    require(!initialized, \"Already initialized\");\r\n    collection.safeTransferFrom(msg.sender, address(this), tokenId);\r\n    initialized = true;\r\n    _mint(msg.sender, amount);\r\n  }\r\n\r\n  function createSale(uint256 _amount, uint256 _price) public returns (address) {\r\n    address F_NFTSaleCA = address(\r\n        new F_NFTSale(msg.sender, address(this), _amount, _price)\r\n    );\r\n\r\n    F_NFTSaleCAs.push(F_NFTSaleCA);\r\n\r\n    transfer(F_NFTSaleCA, _amount);\r\n\r\n    sellerAddress[F_NFTSaleCA] = msg.sender;\r\n    F_NFTSaleAddress[msg.sender] = F_NFTSaleCA;\r\n\r\n    emit CreateSale(address(this), F_NFTSaleCA, msg.sender, _amount, _price);\r\n\r\n    return F_NFTSaleCA;\r\n  }\r\n\r\n  //    \r\n  function removeSoldoutSaleCA(address _SaleCA) external {\r\n    require(msg.sender == _SaleCA, \"Only remove myself\");\r\n\r\n    for (uint256 i = 0; i < F_NFTSaleCAs.length; i++) {\r\n      if (F_NFTSaleCAs[i] == _SaleCA) {\r\n        F_NFTSaleCAs[i] = F_NFTSaleCAs[F_NFTSaleCAs.length - 1];\r\n        F_NFTSaleCAs.pop();\r\n      }\r\n    }\r\n  }\r\n\r\n  // function startAuction(uint256 _startPrice) external {\r\n  //   require((100 * balanceOf(msg.sender) / totalSupply()) > 50, \"Only user who own more than 50% of fractions can start auction\");\r\n  //   require(!ended, \"Auction Ended\");\r\n  //   require(!auctionStatus, \"Auctioning\");\r\n  //   require(highestBid == 0, \"there is someone who makes a bid\");\r\n\r\n  //   auctionStatus = true;\r\n  //   minimumPrice = _startPrice;\r\n\r\n  //   emit StartAuc(address(this), _startPrice, auctionStatus);\r\n  // }\r\n\r\n  // function cancelAuction() external {\r\n  //   require((100 * balanceOf(msg.sender) / totalSupply()) > 50, \"Only user who own more than 50% of fractions can cancel auction\");\r\n  //   require(!ended, \"Auction Ended\");\r\n  //   require(highestBid == 0, \"there is someone who makes a bid\");\r\n  //   require(auctionStatus, \"Not to auction\");\r\n\r\n  //   auctionStatus = false;\r\n\r\n  //   emit CancelAuc(address(this), auctionStatus);\r\n  // }\r\n\r\n  // function bid () external payable {\r\n  //   require(auctionStatus, \"Not to auction\");\r\n  //   //        ,  \r\n  //   require(highestBid == 0 || block.timestamp <= auctionEndTime, \"Not to auction\");\r\n  //   require(msg.value >= minimumPrice, \"Have to Bid higher than minimumPrice\");\r\n  //   require(msg.value > highestBid, \"Have to Bid higher than current bid\");\r\n\r\n  //   //     .\r\n  //   if (highestBid  != 0) {\r\n  //     payable(highestBidder).transfer(highestBid);\r\n  //   } \r\n  //   //       3 .\r\n  //   else {\r\n  //     uint256 threeday = 3 days;\r\n  //     auctionEndTime = block.timestamp + threeday;\r\n  //   }\r\n\r\n  //   emit HighestBidIncreased(address(this), highestBidder, highestBid, msg.sender, msg.value);\r\n\r\n  //   highestBidder = msg.sender;\r\n  //   highestBid = msg.value;\r\n  // }\r\n\r\n  // function auctionEnd() public {\r\n  //   require(!ended, \"Already called\");\r\n  //   require(block.timestamp >= auctionEndTime, \"To auction\");\r\n  //   require(highestBid != 0, \"Nobody makes a bid\");\r\n\r\n  //   ended = true;\r\n  //   collection.safeTransferFrom(address(this), highestBidder, tokenId);\r\n\r\n  //   uint256 totalFractions = totalSupply();\r\n  //   // address[] users = ;\r\n\r\n  //   uint256 totalEther = address(this).balance;\r\n  //   uint256 possessions;\r\n  //   address user;\r\n  //   uint256 toRedeem;\r\n\r\n  //   //      \r\n  //   while(partyAddresses.length != 0) {\r\n  //     possessions = balanceOf(partyAddresses[0]);\r\n  //     user = partyAddresses[0];\r\n      \r\n  //     // emit Check( possessions, partyAddresses, partyAddresses.length);\r\n  //     _burn(user, possessions);\r\n\r\n  //     toRedeem = possessions * totalEther / totalFractions;\r\n  //     //     ,     \r\n  //     if (sellerAddress[user] != address(0)) {\r\n  //       SaleContract = IF_Sale(user);\r\n  //       SaleContract.destruct();\r\n  //       user = sellerAddress[user];\r\n  //     }\r\n  //     payable(user).transfer(toRedeem);\r\n  //   }\r\n\r\n  //   emit EndAuc(address(this), ended);\r\n  //   selfdestruct(payable(creater));\r\n  // }\r\n\r\n  // function _afterTokenTransfer(\r\n  //   address from,\r\n  //   address to,\r\n  //   uint256 amount\r\n  // ) internal virtual override {\r\n  //   super._afterTokenTransfer(from, to, amount);\r\n\r\n  //   if (to != address(0)) {\r\n  //     if (partyAddressesIdx[to] == 0) {\r\n  //       partyAddresses.push(to);\r\n  //       partyAddressesLength += 1;\r\n  //       //   Item partyAddressesIdx[to] == 0   Idx +1 \r\n  //       partyAddressesIdx[to] = partyAddressesLength; \r\n  //     }\r\n  //   }\r\n  //   if (from != address(0) && balanceOf(from) == 0) {\r\n  //     //   mapping \r\n  //     uint256 index = partyAddressesIdx[from];\r\n  //     delete partyAddressesIdx[from];\r\n  //     //    Item   \r\n  //     address lastUser = partyAddresses[partyAddressesLength - 1];\r\n  //     // Idx +1    -1\r\n  //     partyAddresses[index - 1] = lastUser;\r\n  //     partyAddressesLength -= 1;\r\n  //     partyAddresses.pop();\r\n  //     partyAddressesIdx[lastUser] = index;\r\n  //   }\r\n  // }\r\n\r\n  function allSaleCAs() public view returns (address[] memory) {\r\n    return F_NFTSaleCAs;\r\n  }\r\n\r\n  // function getAllAddresses() public view returns (address[] memory) {\r\n  //   return partyAddresses;\r\n  // }\r\n\r\n  // function getHighestBid() public view returns (uint256) {\r\n  //   return highestBid;\r\n  // }\r\n\r\n  // function getHighestBidder() public view returns (address) {\r\n  //   return highestBidder;\r\n  // }\r\n\r\n  function getBalance() public view returns (uint256) {\r\n    return address(this).balance;\r\n  }\r\n}",
  "sourcePath": "D:\\ssafy\\2\\\\S07P31B102\\Blockchain\\contracts\\FractionalizedNFT.sol",
  "compiler": {
    "name": "solc",
    "version": "0.8.17+commit.8df45f5f.Emscripten.clang"
  },
  "schemaVersion": "3.4.10",
  "updatedAt": "2022-11-18T03:59:32.765Z",
  "devdoc": {
    "kind": "dev",
    "methods": {
      "DOMAIN_SEPARATOR()": {
        "details": "See {IERC20Permit-DOMAIN_SEPARATOR}."
      },
      "allowance(address,address)": {
        "details": "See {IERC20-allowance}."
      },
      "approve(address,uint256)": {
        "details": "See {IERC20-approve}. NOTE: If `amount` is the maximum `uint256`, the allowance is not updated on `transferFrom`. This is semantically equivalent to an infinite approval. Requirements: - `spender` cannot be the zero address."
      },
      "balanceOf(address)": {
        "details": "See {IERC20-balanceOf}."
      },
      "decimals()": {
        "details": "Returns the number of decimals used to get its user representation. For example, if `decimals` equals `2`, a balance of `505` tokens should be displayed to a user as `5.05` (`505 / 10 ** 2`). Tokens usually opt for a value of 18, imitating the relationship between Ether and Wei. This is the value {ERC20} uses, unless this function is overridden; NOTE: This information is only used for _display_ purposes: it in no way affects any of the arithmetic of the contract, including {IERC20-balanceOf} and {IERC20-transfer}."
      },
      "decreaseAllowance(address,uint256)": {
        "details": "Atomically decreases the allowance granted to `spender` by the caller. This is an alternative to {approve} that can be used as a mitigation for problems described in {IERC20-approve}. Emits an {Approval} event indicating the updated allowance. Requirements: - `spender` cannot be the zero address. - `spender` must have allowance for the caller of at least `subtractedValue`."
      },
      "increaseAllowance(address,uint256)": {
        "details": "Atomically increases the allowance granted to `spender` by the caller. This is an alternative to {approve} that can be used as a mitigation for problems described in {IERC20-approve}. Emits an {Approval} event indicating the updated allowance. Requirements: - `spender` cannot be the zero address."
      },
      "name()": {
        "details": "Returns the name of the token."
      },
      "nonces(address)": {
        "details": "See {IERC20Permit-nonces}."
      },
      "onERC721Received(address,address,uint256,bytes)": {
        "details": "See {IERC721Receiver-onERC721Received}. Always returns `IERC721Receiver.onERC721Received.selector`."
      },
      "owner()": {
        "details": "Returns the address of the current owner."
      },
      "permit(address,address,uint256,uint256,uint8,bytes32,bytes32)": {
        "details": "See {IERC20Permit-permit}."
      },
      "renounceOwnership()": {
        "details": "Leaves the contract without owner. It will not be possible to call `onlyOwner` functions anymore. Can only be called by the current owner. NOTE: Renouncing ownership will leave the contract without an owner, thereby removing any functionality that is only available to the owner."
      },
      "symbol()": {
        "details": "Returns the symbol of the token, usually a shorter version of the name."
      },
      "totalSupply()": {
        "details": "See {IERC20-totalSupply}."
      },
      "transfer(address,uint256)": {
        "details": "See {IERC20-transfer}. Requirements: - `to` cannot be the zero address. - the caller must have a balance of at least `amount`."
      },
      "transferFrom(address,address,uint256)": {
        "details": "See {IERC20-transferFrom}. Emits an {Approval} event indicating the updated allowance. This is not required by the EIP. See the note at the beginning of {ERC20}. NOTE: Does not update the allowance if the current allowance is the maximum `uint256`. Requirements: - `from` and `to` cannot be the zero address. - `from` must have a balance of at least `amount`. - the caller must have allowance for ``from``'s tokens of at least `amount`."
      },
      "transferOwnership(address)": {
        "details": "Transfers ownership of the contract to a new account (`newOwner`). Can only be called by the current owner."
      }
    },
    "version": 1
  },
  "userdoc": {
    "kind": "user",
    "methods": {},
    "version": 1
  }
}