{
  "contractName": "FractionalizedNFT",
  "abi": [
    {
      "inputs": [
        {
          "internalType": "address",
          "name": "_NFTCA",
          "type": "address"
        },
        {
          "internalType": "uint256",
          "name": "_tokenId",
          "type": "uint256"
        },
        {
          "internalType": "uint256",
          "name": "_amount",
          "type": "uint256"
        },
        {
          "internalType": "address",
          "name": "_creater",
          "type": "address"
        },
        {
          "internalType": "string",
          "name": "_name",
          "type": "string"
        },
        {
          "internalType": "string",
          "name": "_symbol",
          "type": "string"
        }
      ],
      "stateMutability": "nonpayable",
      "type": "constructor"
    },
    {
      "anonymous": false,
      "inputs": [
        {
          "indexed": true,
          "internalType": "address",
          "name": "owner",
          "type": "address"
        },
        {
          "indexed": true,
          "internalType": "address",
          "name": "spender",
          "type": "address"
        },
        {
          "indexed": false,
          "internalType": "uint256",
          "name": "value",
          "type": "uint256"
        }
      ],
      "name": "Approval",
      "type": "event"
    },
    {
      "anonymous": false,
      "inputs": [
        {
          "indexed": false,
          "internalType": "address",
          "name": "user",
          "type": "address"
        },
        {
          "indexed": false,
          "internalType": "uint256",
          "name": "amount",
          "type": "uint256"
        }
      ],
      "name": "Burn",
      "type": "event"
    },
    {
      "anonymous": false,
      "inputs": [
        {
          "indexed": false,
          "internalType": "address",
          "name": "F_CA",
          "type": "address"
        },
        {
          "indexed": false,
          "internalType": "bool",
          "name": "auctionStatus",
          "type": "bool"
        }
      ],
      "name": "CancelAuc",
      "type": "event"
    },
    {
      "anonymous": false,
      "inputs": [
        {
          "indexed": false,
          "internalType": "uint256",
          "name": "amount",
          "type": "uint256"
        },
        {
          "indexed": false,
          "internalType": "address[]",
          "name": "users",
          "type": "address[]"
        },
        {
          "indexed": false,
          "internalType": "uint256",
          "name": "index",
          "type": "uint256"
        }
      ],
      "name": "Check",
      "type": "event"
    },
    {
      "anonymous": false,
      "inputs": [
        {
          "indexed": false,
          "internalType": "address",
          "name": "F_CA",
          "type": "address"
        },
        {
          "indexed": false,
          "internalType": "address",
          "name": "F_SaleCA",
          "type": "address"
        },
        {
          "indexed": false,
          "internalType": "address",
          "name": "seller",
          "type": "address"
        },
        {
          "indexed": false,
          "internalType": "uint256",
          "name": "amount",
          "type": "uint256"
        },
        {
          "indexed": false,
          "internalType": "uint256",
          "name": "price",
          "type": "uint256"
        }
      ],
      "name": "CreateSale",
      "type": "event"
    },
    {
      "anonymous": false,
      "inputs": [
        {
          "indexed": false,
          "internalType": "address",
          "name": "F_CA",
          "type": "address"
        },
        {
          "indexed": false,
          "internalType": "bool",
          "name": "ended",
          "type": "bool"
        }
      ],
      "name": "EndAuc",
      "type": "event"
    },
    {
      "anonymous": false,
      "inputs": [
        {
          "indexed": false,
          "internalType": "address",
          "name": "F_CA",
          "type": "address"
        },
        {
          "indexed": false,
          "internalType": "address",
          "name": "preBidder",
          "type": "address"
        },
        {
          "indexed": false,
          "internalType": "uint256",
          "name": "preAmount",
          "type": "uint256"
        },
        {
          "indexed": false,
          "internalType": "address",
          "name": "bidder",
          "type": "address"
        },
        {
          "indexed": false,
          "internalType": "uint256",
          "name": "amount",
          "type": "uint256"
        }
      ],
      "name": "HighestBidIncreased",
      "type": "event"
    },
    {
      "anonymous": false,
      "inputs": [
        {
          "indexed": true,
          "internalType": "address",
          "name": "previousOwner",
          "type": "address"
        },
        {
          "indexed": true,
          "internalType": "address",
          "name": "newOwner",
          "type": "address"
        }
      ],
      "name": "OwnershipTransferred",
      "type": "event"
    },
    {
      "anonymous": false,
      "inputs": [
        {
          "indexed": false,
          "internalType": "address",
          "name": "F_CA",
          "type": "address"
        },
        {
          "indexed": false,
          "internalType": "uint256",
          "name": "minimumPrice",
          "type": "uint256"
        },
        {
          "indexed": false,
          "internalType": "bool",
          "name": "auctionStatus",
          "type": "bool"
        }
      ],
      "name": "StartAuc",
      "type": "event"
    },
    {
      "anonymous": false,
      "inputs": [
        {
          "indexed": true,
          "internalType": "address",
          "name": "from",
          "type": "address"
        },
        {
          "indexed": true,
          "internalType": "address",
          "name": "to",
          "type": "address"
        },
        {
          "indexed": false,
          "internalType": "uint256",
          "name": "value",
          "type": "uint256"
        }
      ],
      "name": "Transfer",
      "type": "event"
    },
    {
      "inputs": [],
      "name": "DOMAIN_SEPARATOR",
      "outputs": [
        {
          "internalType": "bytes32",
          "name": "",
          "type": "bytes32"
        }
      ],
      "stateMutability": "view",
      "type": "function"
    },
    {
      "inputs": [
        {
          "internalType": "uint256",
          "name": "",
          "type": "uint256"
        }
      ],
      "name": "F_NFTSaleCAs",
      "outputs": [
        {
          "internalType": "address",
          "name": "",
          "type": "address"
        }
      ],
      "stateMutability": "view",
      "type": "function"
    },
    {
      "inputs": [],
      "name": "NFTCA",
      "outputs": [
        {
          "internalType": "address",
          "name": "",
          "type": "address"
        }
      ],
      "stateMutability": "view",
      "type": "function"
    },
    {
      "inputs": [],
      "name": "SaleContract",
      "outputs": [
        {
          "internalType": "contract IF_Sale",
          "name": "",
          "type": "address"
        }
      ],
      "stateMutability": "view",
      "type": "function"
    },
    {
      "inputs": [
        {
          "internalType": "address",
          "name": "owner",
          "type": "address"
        },
        {
          "internalType": "address",
          "name": "spender",
          "type": "address"
        }
      ],
      "name": "allowance",
      "outputs": [
        {
          "internalType": "uint256",
          "name": "",
          "type": "uint256"
        }
      ],
      "stateMutability": "view",
      "type": "function"
    },
    {
      "inputs": [],
      "name": "amount",
      "outputs": [
        {
          "internalType": "uint256",
          "name": "",
          "type": "uint256"
        }
      ],
      "stateMutability": "view",
      "type": "function"
    },
    {
      "inputs": [
        {
          "internalType": "address",
          "name": "spender",
          "type": "address"
        },
        {
          "internalType": "uint256",
          "name": "amount",
          "type": "uint256"
        }
      ],
      "name": "approve",
      "outputs": [
        {
          "internalType": "bool",
          "name": "",
          "type": "bool"
        }
      ],
      "stateMutability": "nonpayable",
      "type": "function"
    },
    {
      "inputs": [],
      "name": "auctionEndTime",
      "outputs": [
        {
          "internalType": "uint256",
          "name": "",
          "type": "uint256"
        }
      ],
      "stateMutability": "view",
      "type": "function"
    },
    {
      "inputs": [],
      "name": "auctionStatus",
      "outputs": [
        {
          "internalType": "bool",
          "name": "",
          "type": "bool"
        }
      ],
      "stateMutability": "view",
      "type": "function"
    },
    {
      "inputs": [
        {
          "internalType": "address",
          "name": "account",
          "type": "address"
        }
      ],
      "name": "balanceOf",
      "outputs": [
        {
          "internalType": "uint256",
          "name": "",
          "type": "uint256"
        }
      ],
      "stateMutability": "view",
      "type": "function"
    },
    {
      "inputs": [],
      "name": "collection",
      "outputs": [
        {
          "internalType": "contract IERC721",
          "name": "",
          "type": "address"
        }
      ],
      "stateMutability": "view",
      "type": "function"
    },
    {
      "inputs": [],
      "name": "creater",
      "outputs": [
        {
          "internalType": "address",
          "name": "",
          "type": "address"
        }
      ],
      "stateMutability": "view",
      "type": "function"
    },
    {
      "inputs": [],
      "name": "decimals",
      "outputs": [
        {
          "internalType": "uint8",
          "name": "",
          "type": "uint8"
        }
      ],
      "stateMutability": "view",
      "type": "function"
    },
    {
      "inputs": [
        {
          "internalType": "address",
          "name": "spender",
          "type": "address"
        },
        {
          "internalType": "uint256",
          "name": "subtractedValue",
          "type": "uint256"
        }
      ],
      "name": "decreaseAllowance",
      "outputs": [
        {
          "internalType": "bool",
          "name": "",
          "type": "bool"
        }
      ],
      "stateMutability": "nonpayable",
      "type": "function"
    },
    {
      "inputs": [],
      "name": "ended",
      "outputs": [
        {
          "internalType": "bool",
          "name": "",
          "type": "bool"
        }
      ],
      "stateMutability": "view",
      "type": "function"
    },
    {
      "inputs": [],
      "name": "highestBid",
      "outputs": [
        {
          "internalType": "uint256",
          "name": "",
          "type": "uint256"
        }
      ],
      "stateMutability": "view",
      "type": "function"
    },
    {
      "inputs": [],
      "name": "highestBidder",
      "outputs": [
        {
          "internalType": "address",
          "name": "",
          "type": "address"
        }
      ],
      "stateMutability": "view",
      "type": "function"
    },
    {
      "inputs": [
        {
          "internalType": "address",
          "name": "spender",
          "type": "address"
        },
        {
          "internalType": "uint256",
          "name": "addedValue",
          "type": "uint256"
        }
      ],
      "name": "increaseAllowance",
      "outputs": [
        {
          "internalType": "bool",
          "name": "",
          "type": "bool"
        }
      ],
      "stateMutability": "nonpayable",
      "type": "function"
    },
    {
      "inputs": [],
      "name": "initialized",
      "outputs": [
        {
          "internalType": "bool",
          "name": "",
          "type": "bool"
        }
      ],
      "stateMutability": "view",
      "type": "function"
    },
    {
      "inputs": [],
      "name": "minimumPrice",
      "outputs": [
        {
          "internalType": "uint256",
          "name": "",
          "type": "uint256"
        }
      ],
      "stateMutability": "view",
      "type": "function"
    },
    {
      "inputs": [],
      "name": "name",
      "outputs": [
        {
          "internalType": "string",
          "name": "",
          "type": "string"
        }
      ],
      "stateMutability": "view",
      "type": "function"
    },
    {
      "inputs": [
        {
          "internalType": "address",
          "name": "owner",
          "type": "address"
        }
      ],
      "name": "nonces",
      "outputs": [
        {
          "internalType": "uint256",
          "name": "",
          "type": "uint256"
        }
      ],
      "stateMutability": "view",
      "type": "function"
    },
    {
      "inputs": [
        {
          "internalType": "address",
          "name": "",
          "type": "address"
        },
        {
          "internalType": "address",
          "name": "",
          "type": "address"
        },
        {
          "internalType": "uint256",
          "name": "",
          "type": "uint256"
        },
        {
          "internalType": "bytes",
          "name": "",
          "type": "bytes"
        }
      ],
      "name": "onERC721Received",
      "outputs": [
        {
          "internalType": "bytes4",
          "name": "",
          "type": "bytes4"
        }
      ],
      "stateMutability": "nonpayable",
      "type": "function"
    },
    {
      "inputs": [],
      "name": "owner",
      "outputs": [
        {
          "internalType": "address",
          "name": "",
          "type": "address"
        }
      ],
      "stateMutability": "view",
      "type": "function"
    },
    {
      "inputs": [
        {
          "internalType": "uint256",
          "name": "",
          "type": "uint256"
        }
      ],
      "name": "partyAddresses",
      "outputs": [
        {
          "internalType": "address",
          "name": "",
          "type": "address"
        }
      ],
      "stateMutability": "view",
      "type": "function"
    },
    {
      "inputs": [
        {
          "internalType": "address",
          "name": "owner",
          "type": "address"
        },
        {
          "internalType": "address",
          "name": "spender",
          "type": "address"
        },
        {
          "internalType": "uint256",
          "name": "value",
          "type": "uint256"
        },
        {
          "internalType": "uint256",
          "name": "deadline",
          "type": "uint256"
        },
        {
          "internalType": "uint8",
          "name": "v",
          "type": "uint8"
        },
        {
          "internalType": "bytes32",
          "name": "r",
          "type": "bytes32"
        },
        {
          "internalType": "bytes32",
          "name": "s",
          "type": "bytes32"
        }
      ],
      "name": "permit",
      "outputs": [],
      "stateMutability": "nonpayable",
      "type": "function"
    },
    {
      "inputs": [],
      "name": "renounceOwnership",
      "outputs": [],
      "stateMutability": "nonpayable",
      "type": "function"
    },
    {
      "inputs": [
        {
          "internalType": "address",
          "name": "",
          "type": "address"
        }
      ],
      "name": "sellerAddress",
      "outputs": [
        {
          "internalType": "address",
          "name": "",
          "type": "address"
        }
      ],
      "stateMutability": "view",
      "type": "function"
    },
    {
      "inputs": [],
      "name": "symbol",
      "outputs": [
        {
          "internalType": "string",
          "name": "",
          "type": "string"
        }
      ],
      "stateMutability": "view",
      "type": "function"
    },
    {
      "inputs": [],
      "name": "tokenId",
      "outputs": [
        {
          "internalType": "uint256",
          "name": "",
          "type": "uint256"
        }
      ],
      "stateMutability": "view",
      "type": "function"
    },
    {
      "inputs": [],
      "name": "totalSupply",
      "outputs": [
        {
          "internalType": "uint256",
          "name": "",
          "type": "uint256"
        }
      ],
      "stateMutability": "view",
      "type": "function"
    },
    {
      "inputs": [
        {
          "internalType": "address",
          "name": "to",
          "type": "address"
        },
        {
          "internalType": "uint256",
          "name": "amount",
          "type": "uint256"
        }
      ],
      "name": "transfer",
      "outputs": [
        {
          "internalType": "bool",
          "name": "",
          "type": "bool"
        }
      ],
      "stateMutability": "nonpayable",
      "type": "function"
    },
    {
      "inputs": [
        {
          "internalType": "address",
          "name": "from",
          "type": "address"
        },
        {
          "internalType": "address",
          "name": "to",
          "type": "address"
        },
        {
          "internalType": "uint256",
          "name": "amount",
          "type": "uint256"
        }
      ],
      "name": "transferFrom",
      "outputs": [
        {
          "internalType": "bool",
          "name": "",
          "type": "bool"
        }
      ],
      "stateMutability": "nonpayable",
      "type": "function"
    },
    {
      "inputs": [
        {
          "internalType": "address",
          "name": "newOwner",
          "type": "address"
        }
      ],
      "name": "transferOwnership",
      "outputs": [],
      "stateMutability": "nonpayable",
      "type": "function"
    },
    {
      "inputs": [],
      "name": "initialize",
      "outputs": [],
      "stateMutability": "nonpayable",
      "type": "function"
    },
    {
      "inputs": [
        {
          "internalType": "uint256",
          "name": "_amount",
          "type": "uint256"
        },
        {
          "internalType": "uint256",
          "name": "_price",
          "type": "uint256"
        }
      ],
      "name": "createSale",
      "outputs": [
        {
          "internalType": "address",
          "name": "",
          "type": "address"
        }
      ],
      "stateMutability": "nonpayable",
      "type": "function"
    },
    {
      "inputs": [
        {
          "internalType": "address",
          "name": "_SaleCA",
          "type": "address"
        }
      ],
      "name": "removeSoldoutSaleCA",
      "outputs": [],
      "stateMutability": "nonpayable",
      "type": "function"
    },
    {
      "inputs": [
        {
          "internalType": "uint256",
          "name": "_startPrice",
          "type": "uint256"
        }
      ],
      "name": "startAuction",
      "outputs": [],
      "stateMutability": "nonpayable",
      "type": "function"
    },
    {
      "inputs": [],
      "name": "cancelAuction",
      "outputs": [],
      "stateMutability": "nonpayable",
      "type": "function"
    },
    {
      "inputs": [],
      "name": "bid",
      "outputs": [],
      "stateMutability": "payable",
      "type": "function"
    },
    {
      "inputs": [],
      "name": "auctionEnd",
      "outputs": [],
      "stateMutability": "nonpayable",
      "type": "function"
    },
    {
      "inputs": [],
      "name": "allSaleCAs",
      "outputs": [
        {
          "internalType": "address[]",
          "name": "",
          "type": "address[]"
        }
      ],
      "stateMutability": "view",
      "type": "function"
    },
    {
      "inputs": [],
      "name": "getAllAddresses",
      "outputs": [
        {
          "internalType": "address[]",
          "name": "",
          "type": "address[]"
        }
      ],
      "stateMutability": "view",
      "type": "function"
    },
    {
      "inputs": [],
      "name": "getHighestBid",
      "outputs": [
        {
          "internalType": "uint256",
          "name": "",
          "type": "uint256"
        }
      ],
      "stateMutability": "view",
      "type": "function"
    },
    {
      "inputs": [],
      "name": "getHighestBidder",
      "outputs": [
        {
          "internalType": "address",
          "name": "",
          "type": "address"
        }
      ],
      "stateMutability": "view",
      "type": "function"
    },
    {
      "inputs": [],
      "name": "getBalance",
      "outputs": [
        {
          "internalType": "uint256",
          "name": "",
          "type": "uint256"
        }
      ],
      "stateMutability": "view",
      "type": "function"
    }
  ],
  "bytecode": "0x610140604052600c805460ff60a01b191690556017805461ffff191690553480156200002a57600080fd5b5060405162003ae538038062003ae58339810160408190526200004d91620003d7565b6040805180820190915260018152603160f81b6020820152829081908184600362000079838262000508565b50600462000088828262000508565b505050620000a56200009f6200029f60201b60201c565b620002a3565b815160208084019190912082518383012060e08290526101008190524660a0818152604080517f8b73c3c69bb8fe3d512ecc4cf759cc79239f7b179b0ffacaa9a75d522b39400f81880181905281830187905260608201869052608082019490945230818401528151808203909301835260c00190528051940193909320919290916080523060c052610120525050600880546001600160a01b0319166001600160a01b038b81169182179092556040516331a9108f60e11b8152600481018b905291881694509250636352211e9150602401602060405180830381865afa15801562000196573d6000803e3d6000fd5b505050506040513d601f19601f82011682018060405250810190620001bc9190620005d4565b6001600160a01b0316146200020d5760405162461bcd60e51b81526020600482015260126024820152712737ba1037bbb732b91037b3103a37b5b2b760711b60448201526064015b60405180910390fd5b600084116200025f5760405162461bcd60e51b815260206004820152601e60248201527f416d6f756e74206e6565647320746f206265206d6f7265207468616e20300000604482015260640162000204565b5050600980546001600160a01b039586166001600160a01b031991821617909155600b93909355600a91909155600c8054919093169116179055620005f9565b3390565b600580546001600160a01b038381166001600160a01b0319831681179093556040519116919082907f8be0079c531659141344cd1fd0a4f28419497f9722a3daafe3b4186f6b6457e090600090a35050565b80516001600160a01b03811681146200030d57600080fd5b919050565b634e487b7160e01b600052604160045260246000fd5b600082601f8301126200033a57600080fd5b81516001600160401b038082111562000357576200035762000312565b604051601f8301601f19908116603f0116810190828211818310171562000382576200038262000312565b816040528381526020925086838588010111156200039f57600080fd5b600091505b83821015620003c35785820183015181830184015290820190620003a4565b600093810190920192909252949350505050565b60008060008060008060c08789031215620003f157600080fd5b620003fc87620002f5565b955060208701519450604087015193506200041a60608801620002f5565b60808801519093506001600160401b03808211156200043857600080fd5b620004468a838b0162000328565b935060a08901519150808211156200045d57600080fd5b506200046c89828a0162000328565b9150509295509295509295565b600181811c908216806200048e57607f821691505b602082108103620004af57634e487b7160e01b600052602260045260246000fd5b50919050565b601f8211156200050357600081815260208120601f850160051c81016020861015620004de5750805b601f850160051c820191505b81811015620004ff57828155600101620004ea565b5050505b505050565b81516001600160401b0381111562000524576200052462000312565b6200053c8162000535845462000479565b84620004b5565b602080601f8311600181146200057457600084156200055b5750858301515b600019600386901b1c1916600185901b178555620004ff565b600085815260208120601f198616915b82811015620005a55788860151825594840194600190910190840162000584565b5085821015620005c45787850151600019600388901b60f8161c191681555b5050505050600190811b01905550565b600060208284031215620005e757600080fd5b620005f282620002f5565b9392505050565b60805160a05160c05160e051610100516101205161349c620006496000396000611fef0152600061203e0152600061201901526000611f7001526000611f9b01526000611fc6015261349c6000f3fe608060405260043610620002b25760003560e01c8063715018a6116200016b57806395d89b4111620000d1578063c792d8fd1162000084578063c792d8fd1462000804578063cb7b9f691462000829578063d505accf146200084b578063d57bde791462000870578063dd62ed3e1462000888578063f2fde38b14620008ad57600080fd5b806395d89b41146200074c5780639d6a0f281462000764578063a3f69cad1462000780578063a457c2d714620007a2578063a9059cbb14620007c7578063aa8c217c14620007ec57600080fd5b80637f386b6c116200012a5780637f386b6c14620006aa5780638129fc1c14620006c25780638da5cb5b14620006da5780638fa8b79014620006fa57806391f9015714620007125780639516a104146200073457600080fd5b8063715018a614620005ff5780637843fd4514620006175780637de1e536146200063e5780637e50868214620006605780637ecebe00146200068557600080fd5b806323b872dd116200021d5780634404faf911620001d05780634404faf9146200051557806345653a6d146200054f5780634979440a14620005715780634b449cba14620005885780636019061b14620005a057806370a0823114620005c557600080fd5b806323b872dd14620004585780632a24f46c146200047d578063313ce56714620004955780633644e51514620004b35780633950935114620004cb5780633cb35ef414620004f057600080fd5b806312fa6feb116200027657806312fa6feb1462000392578063150b7a0214620003b3578063158ef93e14620003fc57806317d70f7c146200041f57806318160ddd14620004375780631998aeef146200044e57600080fd5b80623495a414620002b7578063065de74c14620002ef57806306fdde031462000316578063095ea7b3146200033d57806312065fe01462000373575b600080fd5b348015620002c457600080fd5b506015546001600160a01b03165b6040516001600160a01b0390911681526020015b60405180910390f35b348015620002fc57600080fd5b50620003146200030e366004620027a9565b620008d2565b005b3480156200032357600080fd5b506200032e62000ab8565b604051620002e69190620027c3565b3480156200034a57600080fd5b50620003626200035c36600462002830565b62000b52565b6040519015158152602001620002e6565b3480156200038057600080fd5b50475b604051908152602001620002e6565b3480156200039f57600080fd5b506017546200036290610100900460ff1681565b348015620003c057600080fd5b50620003e2620003d236600462002873565b630a85bd0160e11b949350505050565b6040516001600160e01b03199091168152602001620002e6565b3480156200040957600080fd5b50600c546200036290600160a01b900460ff1681565b3480156200042c57600080fd5b5062000383600b5481565b3480156200044457600080fd5b5060025462000383565b6200031462000b6e565b3480156200046557600080fd5b5062000362620004773660046200295d565b62000d56565b3480156200048a57600080fd5b506200031462000d7e565b348015620004a257600080fd5b5060405160128152602001620002e6565b348015620004c057600080fd5b5062000383620010ca565b348015620004d857600080fd5b5062000362620004ea36600462002830565b620010db565b348015620004fd57600080fd5b50620003146200050f3660046200299e565b62001103565b3480156200052257600080fd5b50620002d2620005343660046200299e565b600f602052600090815260409020546001600160a01b031681565b3480156200055c57600080fd5b50600c54620002d2906001600160a01b031681565b3480156200057e57600080fd5b5060165462000383565b3480156200059557600080fd5b506200038360135481565b348015620005ad57600080fd5b50620002d2620005bf366004620029c3565b6200126d565b348015620005d257600080fd5b5062000383620005e43660046200299e565b6001600160a01b031660009081526020819052604090205490565b3480156200060c57600080fd5b5062000314620013a1565b3480156200062457600080fd5b506200062f620013b9565b604051620002e69190620029e6565b3480156200064b57600080fd5b50600854620002d2906001600160a01b031681565b3480156200066d57600080fd5b50620002d26200067f366004620027a9565b6200141c565b3480156200069257600080fd5b5062000383620006a43660046200299e565b62001447565b348015620006b757600080fd5b506200038360145481565b348015620006cf57600080fd5b506200031462001466565b348015620006e757600080fd5b506005546001600160a01b0316620002d2565b3480156200070757600080fd5b50620003146200159a565b3480156200071f57600080fd5b50601554620002d2906001600160a01b031681565b3480156200074157600080fd5b506200062f6200174a565b3480156200075957600080fd5b506200032e620017ac565b3480156200077157600080fd5b50601754620003629060ff1681565b3480156200078d57600080fd5b50600954620002d2906001600160a01b031681565b348015620007af57600080fd5b5062000362620007c136600462002830565b620017bd565b348015620007d457600080fd5b5062000362620007e636600462002830565b6200183e565b348015620007f957600080fd5b5062000383600a5481565b3480156200081157600080fd5b50620002d262000823366004620027a9565b6200184e565b3480156200083657600080fd5b50600d54620002d2906001600160a01b031681565b3480156200085857600080fd5b50620003146200086a36600462002a35565b6200185f565b3480156200087d57600080fd5b506200038360165481565b3480156200089557600080fd5b5062000383620008a736600462002aae565b620019cf565b348015620008ba57600080fd5b5062000314620008cc3660046200299e565b620019fa565b6032620008de60025490565b33600090815260208190526040902054620008fb90606462002afc565b62000907919062002b16565b11620009805760405162461bcd60e51b815260206004820152603e60248201527f4f6e6c7920757365722077686f206f776e206d6f7265207468616e203530252060448201527f6f66206672616374696f6e732063616e2073746172742061756374696f6e000060648201526084015b60405180910390fd5b601754610100900460ff1615620009ca5760405162461bcd60e51b815260206004820152600d60248201526c105d58dd1a5bdb88115b991959609a1b604482015260640162000977565b60175460ff161562000a0c5760405162461bcd60e51b815260206004820152600a60248201526941756374696f6e696e6760b01b604482015260640162000977565b6016541562000a5e5760405162461bcd60e51b815260206004820181905260248201527f746865726520697320736f6d656f6e652077686f206d616b6573206120626964604482015260640162000977565b6017805460ff1916600190811790915560148290556040805130815260208101849052908101919091527fa98575d9a1066aabf5a5dbddd14c7ab2334fdbf6c243b82748258fdc5c1bd5039060600160405180910390a150565b60606003805462000ac99062002b39565b80601f016020809104026020016040519081016040528092919081815260200182805462000af79062002b39565b801562000b485780601f1062000b1c5761010080835404028352916020019162000b48565b820191906000526020600020905b81548152906001019060200180831162000b2a57829003601f168201915b5050505050905090565b60003362000b6281858562001a79565b60019150505b92915050565b60175460ff1662000b935760405162461bcd60e51b8152600401620009779062002b6f565b601654158062000ba557506013544211155b62000bc45760405162461bcd60e51b8152600401620009779062002b6f565b60145434101562000c245760405162461bcd60e51b8152602060048201526024808201527f4861766520746f2042696420686967686572207468616e206d696e696d756d506044820152637269636560e01b606482015260840162000977565b601654341162000c835760405162461bcd60e51b815260206004820152602360248201527f4861766520746f2042696420686967686572207468616e2063757272656e7420604482015262189a5960ea1b606482015260840162000977565b6016541562000cd0576015546016546040516001600160a01b039092169181156108fc0291906000818181858888f1935050505015801562000cc9573d6000803e3d6000fd5b5062000ce5565b6203f48062000ce0814262002b97565b601355505b601554601654604080513081526001600160a01b0390931660208401528201523360608201523460808201527fe7fe2882e27ebb5263c28ca713ab9a1fa03e784bab54c8ceae70ed309078432a9060a00160405180910390a1601580546001600160a01b0319163317905534601655565b60003362000d6685828562001ba1565b62000d7385858562001c22565b506001949350505050565b601754610100900460ff161562000dc95760405162461bcd60e51b815260206004820152600e60248201526d105b1c9958591e4818d85b1b195960921b604482015260640162000977565b60135442101562000e0a5760405162461bcd60e51b815260206004820152600a6024820152692a379030bab1ba34b7b760b11b604482015260640162000977565b60165460000362000e535760405162461bcd60e51b8152602060048201526012602482015271139bd89bd91e481b585ad95cc81848189a5960721b604482015260640162000977565b6017805461ff001916610100179055600854601554600b54604051632142170760e11b81523060048201526001600160a01b03928316602482015260448101919091529116906342842e0e90606401600060405180830381600087803b15801562000ebd57600080fd5b505af115801562000ed2573d6000803e3d6000fd5b50505050600062000ee260025490565b905047600080805b60105415620010775762000f32601060008154811062000f0e5762000f0e62002bad565b60009182526020808320909101546001600160a01b03168252819052604090205490565b9250601060008154811062000f4b5762000f4b62002bad565b6000918252602090912001546001600160a01b0316915062000f6e828462001e01565b8462000f7b858562002afc565b62000f87919062002b16565b6001600160a01b038381166000908152600f602052604090205491925016156200103957600d80546001600160a01b0319166001600160a01b038416908117909155604080516315b45ce360e11b81529051632b68b9c69160048082019260009290919082900301818387803b1580156200100157600080fd5b505af115801562001016573d6000803e3d6000fd5b5050506001600160a01b039283166000908152600f602052604090205490921691505b6040516001600160a01b0383169082156108fc029083906000818181858888f1935050505015801562001070573d6000803e3d6000fd5b5062000eea565b6017546040805130815261010090920460ff16151560208301527ff0e82354475ac3440bf28aec51450d49b8ac247c213730a0be4ce171420ab214910160405180910390a1600c546001600160a01b0316ff5b6000620010d662001f63565b905090565b60003362000b62818585620010f18383620019cf565b620010fd919062002b97565b62001a79565b336001600160a01b03821614620011525760405162461bcd60e51b815260206004820152601260248201527127b7363c903932b6b7bb329036bcb9b2b63360711b604482015260640162000977565b60005b600e548110156200126957816001600160a01b0316600e828154811062001180576200118062002bad565b6000918252602090912001546001600160a01b0316036200125457600e8054620011ad9060019062002bc3565b81548110620011c057620011c062002bad565b600091825260209091200154600e80546001600160a01b039092169183908110620011ef57620011ef62002bad565b9060005260206000200160006101000a8154816001600160a01b0302191690836001600160a01b03160217905550600e80548062001231576200123162002bd9565b600082815260209020810160001990810180546001600160a01b03191690550190555b80620012608162002bef565b91505062001155565b5050565b6000803330858560405162001282906200279b565b6001600160a01b03948516815293909216602084015260408301526060820152608001604051809103906000f080158015620012c2573d6000803e3d6000fd5b50600e80546001810182556000919091527fbb7b4a454dc3493923482f07822329ed19e8244eff582cc204f8554c3620c3fd0180546001600160a01b0319166001600160a01b03831617905590506200131c81856200183e565b506001600160a01b0381166000818152600f602090815260409182902080546001600160a01b031916339081179091558251308152918201939093529081019190915260608101859052608081018490527ff800216b49e9f4066dd1d33ae81712cebc8643f9aa20ad16aa348eae951825a79060a00160405180910390a19392505050565b620013ab6200208c565b620013b76000620020e8565b565b6060600e80548060200260200160405190810160405280929190818152602001828054801562000b4857602002820191906000526020600020905b81546001600160a01b03168152600190910190602001808311620013f4575050505050905090565b600e81815481106200142d57600080fd5b6000918252602090912001546001600160a01b0316905081565b6001600160a01b03811660009081526006602052604081205462000b68565b600c546001600160a01b03163314620014b55760405162461bcd60e51b815260206004820152601060248201526f21b0b71037b7363c9031b932b0ba32b960811b604482015260640162000977565b600c54600160a01b900460ff1615620015075760405162461bcd60e51b8152602060048201526013602482015272105b1c9958591e481a5b9a5d1a585b1a5e9959606a1b604482015260640162000977565b600854600b54604051632142170760e11b815233600482015230602482015260448101919091526001600160a01b03909116906342842e0e90606401600060405180830381600087803b1580156200155e57600080fd5b505af115801562001573573d6000803e3d6000fd5b5050600c805460ff60a01b1916600160a01b1790555050600a54620013b79033906200213a565b6032620015a660025490565b33600090815260208190526040902054620015c390606462002afc565b620015cf919062002b16565b11620016445760405162461bcd60e51b815260206004820152603f60248201527f4f6e6c7920757365722077686f206f776e206d6f7265207468616e203530252060448201527f6f66206672616374696f6e732063616e2063616e63656c2061756374696f6e00606482015260840162000977565b601754610100900460ff16156200168e5760405162461bcd60e51b815260206004820152600d60248201526c105d58dd1a5bdb88115b991959609a1b604482015260640162000977565b60165415620016e05760405162461bcd60e51b815260206004820181905260248201527f746865726520697320736f6d656f6e652077686f206d616b6573206120626964604482015260640162000977565b60175460ff16620017055760405162461bcd60e51b8152600401620009779062002b6f565b6017805460ff1916905560408051308152600060208201527f6f10f862965cd77dbaf3c3d5805fec874244f3467d52f7b92d39d9e374578a91910160405180910390a1565b6060601080548060200260200160405190810160405280929190818152602001828054801562000b48576020028201919060005260206000209081546001600160a01b03168152600190910190602001808311620013f4575050505050905090565b60606004805462000ac99062002b39565b60003381620017cd8286620019cf565b9050838110156200182f5760405162461bcd60e51b815260206004820152602560248201527f45524332303a2064656372656173656420616c6c6f77616e63652062656c6f77604482015264207a65726f60d81b606482015260840162000977565b62000d73828686840362001a79565b60003362000b6281858562001c22565b601081815481106200142d57600080fd5b83421115620018b15760405162461bcd60e51b815260206004820152601d60248201527f45524332305065726d69743a206578706972656420646561646c696e65000000604482015260640162000977565b60007f6e71edae12b1b97f4d1f60370fef10105fa2faae0126114a169c64845d6126c9888888620018e28c62002229565b6040805160208101969096526001600160a01b0394851690860152929091166060840152608083015260a082015260c0810186905260e00160405160208183030381529060405280519060200120905060006200193f8262002251565b905060006200195182878787620022a2565b9050896001600160a01b0316816001600160a01b031614620019b65760405162461bcd60e51b815260206004820152601e60248201527f45524332305065726d69743a20696e76616c6964207369676e61747572650000604482015260640162000977565b620019c38a8a8a62001a79565b50505050505050505050565b6001600160a01b03918216600090815260016020908152604080832093909416825291909152205490565b62001a046200208c565b6001600160a01b03811662001a6b5760405162461bcd60e51b815260206004820152602660248201527f4f776e61626c653a206e6577206f776e657220697320746865207a65726f206160448201526564647265737360d01b606482015260840162000977565b62001a7681620020e8565b50565b6001600160a01b03831662001add5760405162461bcd60e51b8152602060048201526024808201527f45524332303a20617070726f76652066726f6d20746865207a65726f206164646044820152637265737360e01b606482015260840162000977565b6001600160a01b03821662001b405760405162461bcd60e51b815260206004820152602260248201527f45524332303a20617070726f766520746f20746865207a65726f206164647265604482015261737360f01b606482015260840162000977565b6001600160a01b0383811660008181526001602090815260408083209487168084529482529182902085905590518481527f8c5be1e5ebec7d5bd14f71427d1e84f3dd0314c0f7b2291e5b200ac8c7c3b925910160405180910390a3505050565b600062001baf8484620019cf565b9050600019811462001c1c578181101562001c0d5760405162461bcd60e51b815260206004820152601d60248201527f45524332303a20696e73756666696369656e7420616c6c6f77616e6365000000604482015260640162000977565b62001c1c848484840362001a79565b50505050565b6001600160a01b03831662001c885760405162461bcd60e51b815260206004820152602560248201527f45524332303a207472616e736665722066726f6d20746865207a65726f206164604482015264647265737360d81b606482015260840162000977565b6001600160a01b03821662001cec5760405162461bcd60e51b815260206004820152602360248201527f45524332303a207472616e7366657220746f20746865207a65726f206164647260448201526265737360e81b606482015260840162000977565b6001600160a01b0383166000908152602081905260409020548181101562001d665760405162461bcd60e51b815260206004820152602660248201527f45524332303a207472616e7366657220616d6f756e7420657863656564732062604482015265616c616e636560d01b606482015260840162000977565b6001600160a01b0380851660009081526020819052604080822085850390559185168152908120805484929062001d9f90849062002b97565b92505081905550826001600160a01b0316846001600160a01b03167fddf252ad1be2c89b69c2b068fc378daa952ba7f163c4a11628f55a4df523b3ef8460405162001dec91815260200190565b60405180910390a362001c1c848484620022ce565b6001600160a01b03821662001e635760405162461bcd60e51b815260206004820152602160248201527f45524332303a206275726e2066726f6d20746865207a65726f206164647265736044820152607360f81b606482015260840162000977565b6001600160a01b0382166000908152602081905260409020548181101562001ed95760405162461bcd60e51b815260206004820152602260248201527f45524332303a206275726e20616d6f756e7420657863656564732062616c616e604482015261636560f01b606482015260840162000977565b6001600160a01b038316600090815260208190526040812083830390556002805484929062001f0a90849062002bc3565b90915550506040518281526000906001600160a01b038516907fddf252ad1be2c89b69c2b068fc378daa952ba7f163c4a11628f55a4df523b3ef9060200160405180910390a362001f5e83600084620022ce565b505050565b6000306001600160a01b037f00000000000000000000000000000000000000000000000000000000000000001614801562001fbd57507f000000000000000000000000000000000000000000000000000000000000000046145b1562001fe857507f000000000000000000000000000000000000000000000000000000000000000090565b50604080517f00000000000000000000000000000000000000000000000000000000000000006020808301919091527f0000000000000000000000000000000000000000000000000000000000000000828401527f000000000000000000000000000000000000000000000000000000000000000060608301524660808301523060a0808401919091528351808403909101815260c0909201909252805191012090565b6005546001600160a01b03163314620013b75760405162461bcd60e51b815260206004820181905260248201527f4f776e61626c653a2063616c6c6572206973206e6f7420746865206f776e6572604482015260640162000977565b600580546001600160a01b038381166001600160a01b0319831681179093556040519116919082907f8be0079c531659141344cd1fd0a4f28419497f9722a3daafe3b4186f6b6457e090600090a35050565b6001600160a01b038216620021925760405162461bcd60e51b815260206004820152601f60248201527f45524332303a206d696e7420746f20746865207a65726f206164647265737300604482015260640162000977565b8060026000828254620021a6919062002b97565b90915550506001600160a01b03821660009081526020819052604081208054839290620021d590849062002b97565b90915550506040518181526001600160a01b038316906000907fddf252ad1be2c89b69c2b068fc378daa952ba7f163c4a11628f55a4df523b3ef9060200160405180910390a36200126960008383620022ce565b6001600160a01b03811660009081526006602052604090208054600181018255905b50919050565b600062000b686200226162001f63565b8360405161190160f01b6020820152602281018390526042810182905260009060620160405160208183030381529060405280519060200120905092915050565b6000806000620022b587878787620024d8565b91509150620022c481620025cd565b5095945050505050565b6001600160a01b0382161562002382576001600160a01b03821660009081526012602052604081205490036200238257601080546001808201835560009283527f1b6847dc741a1b0cd08d278845f9d819d87b734759afb55fe2de5cb82a9ae67290910180546001600160a01b0319166001600160a01b03861617905560118054919290916200236090849062002b97565b90915550506011546001600160a01b0383166000908152601260205260409020555b6001600160a01b03831615801590620023b157506001600160a01b038316600090815260208190526040902054155b1562001f5e576001600160a01b0383166000908152601260205260408120805490829055601154909190601090620023ec9060019062002bc3565b81548110620023ff57620023ff62002bad565b6000918252602090912001546001600160a01b031690508060106200242660018562002bc3565b8154811062002439576200243962002bad565b9060005260206000200160006101000a8154816001600160a01b0302191690836001600160a01b031602179055506001601160008282546200247c919062002bc3565b9091555050601080548062002495576200249562002bd9565b60008281526020808220830160001990810180546001600160a01b03191690559092019092556001600160a01b0392909216815260129091526040902055505050565b6000807f7fffffffffffffffffffffffffffffff5d576e7357a4501ddfe92f46681b20a0831115620025115750600090506003620025c4565b8460ff16601b141580156200252a57508460ff16601c14155b156200253d5750600090506004620025c4565b6040805160008082526020820180845289905260ff881692820192909252606081018690526080810185905260019060a0016020604051602081039080840390855afa15801562002592573d6000803e3d6000fd5b5050604051601f1901519150506001600160a01b038116620025bd57600060019250925050620025c4565b9150600090505b94509492505050565b6000816004811115620025e457620025e462002c0b565b03620025ed5750565b600181600481111562002604576200260462002c0b565b03620026535760405162461bcd60e51b815260206004820152601860248201527f45434453413a20696e76616c6964207369676e61747572650000000000000000604482015260640162000977565b60028160048111156200266a576200266a62002c0b565b03620026b95760405162461bcd60e51b815260206004820152601f60248201527f45434453413a20696e76616c6964207369676e6174757265206c656e67746800604482015260640162000977565b6003816004811115620026d057620026d062002c0b565b036200272a5760405162461bcd60e51b815260206004820152602260248201527f45434453413a20696e76616c6964207369676e6174757265202773272076616c604482015261756560f01b606482015260840162000977565b600481600481111562002741576200274162002c0b565b0362001a765760405162461bcd60e51b815260206004820152602260248201527f45434453413a20696e76616c6964207369676e6174757265202776272076616c604482015261756560f01b606482015260840162000977565b6108458062002c2283390190565b600060208284031215620027bc57600080fd5b5035919050565b600060208083528351808285015260005b81811015620027f257858101830151858201604001528201620027d4565b506000604082860101526040601f19601f8301168501019250505092915050565b80356001600160a01b03811681146200282b57600080fd5b919050565b600080604083850312156200284457600080fd5b6200284f8362002813565b946020939093013593505050565b634e487b7160e01b600052604160045260246000fd5b600080600080608085870312156200288a57600080fd5b620028958562002813565b9350620028a56020860162002813565b925060408501359150606085013567ffffffffffffffff80821115620028ca57600080fd5b818701915087601f830112620028df57600080fd5b813581811115620028f457620028f46200285d565b604051601f8201601f19908116603f011681019083821181831017156200291f576200291f6200285d565b816040528281528a60208487010111156200293957600080fd5b82602086016020830137600060208483010152809550505050505092959194509250565b6000806000606084860312156200297357600080fd5b6200297e8462002813565b92506200298e6020850162002813565b9150604084013590509250925092565b600060208284031215620029b157600080fd5b620029bc8262002813565b9392505050565b60008060408385031215620029d757600080fd5b50508035926020909101359150565b6020808252825182820181905260009190848201906040850190845b8181101562002a295783516001600160a01b03168352928401929184019160010162002a02565b50909695505050505050565b600080600080600080600060e0888a03121562002a5157600080fd5b62002a5c8862002813565b965062002a6c6020890162002813565b95506040880135945060608801359350608088013560ff8116811462002a9157600080fd5b9699959850939692959460a0840135945060c09093013592915050565b6000806040838503121562002ac257600080fd5b62002acd8362002813565b915062002add6020840162002813565b90509250929050565b634e487b7160e01b600052601160045260246000fd5b808202811582820484141762000b685762000b6862002ae6565b60008262002b3457634e487b7160e01b600052601260045260246000fd5b500490565b600181811c9082168062002b4e57607f821691505b6020821081036200224b57634e487b7160e01b600052602260045260246000fd5b6020808252600e908201526d2737ba103a379030bab1ba34b7b760911b604082015260600190565b8082018082111562000b685762000b6862002ae6565b634e487b7160e01b600052603260045260246000fd5b8181038181111562000b685762000b6862002ae6565b634e487b7160e01b600052603160045260246000fd5b60006001820162002c045762002c0462002ae6565b5060010190565b634e487b7160e01b600052602160045260246000fdfe608060405234801561001057600080fd5b5060405161084538038061084583398101604081905261002f916100a2565b600080546001600160a01b039485166001600160a01b0319918216811790925560018054821683179055600280549690951695811695909517909355600380549094169092179092556004919091556005556100e5565b80516001600160a01b038116811461009d57600080fd5b919050565b600080600080608085870312156100b857600080fd5b6100c185610086565b93506100cf60208601610086565b6040860151606090960151949790965092505050565b610751806100f46000396000f3fe6080604052600436106100955760003560e01c8063a035b1fe11610059578063a035b1fe14610152578063aa8c217c14610168578063b21960241461017e578063e7e104901461019e578063efef39a1146101b357600080fd5b806308551a53146100a157806312065fe0146100de5780632b68b9c6146100fb57806358a5bf641461011257806372c244351461013257600080fd5b3661009c57005b600080fd5b3480156100ad57600080fd5b506002546100c1906001600160a01b031681565b6040516001600160a01b0390911681526020015b60405180910390f35b3480156100ea57600080fd5b50475b6040519081526020016100d5565b34801561010757600080fd5b506101106101c6565b005b34801561011e57600080fd5b506001546100c1906001600160a01b031681565b34801561013e57600080fd5b506000546100c1906001600160a01b031681565b34801561015e57600080fd5b506100ed60055481565b34801561017457600080fd5b506100ed60045481565b34801561018a57600080fd5b506003546100c1906001600160a01b031681565b3480156101aa57600080fd5b50610110610305565b6101106101c136600461067a565b610438565b6000546040516370a0823160e01b81523060048201526001600160a01b03909116906370a0823190602401602060405180830381865afa15801561020e573d6000803e3d6000fd5b505050506040513d601f19601f820116820180604052508101906102329190610693565b156102995760405162461bcd60e51b815260206004820152602c60248201527f4f6e6c792063616e206465737472756374207768656e20636f6e74726163742060448201526b686173206e6f20706965636560a01b60648201526084015b60405180910390fd5b600154604051630f2cd7bd60e21b81523060048201526001600160a01b0390911690633cb35ef490602401600060405180830381600087803b1580156102de57600080fd5b505af11580156102f2573d6000803e3d6000fd5b50506002546001600160a01b0316915050ff5b6002546001600160a01b0316331461035f5760405162461bcd60e51b815260206004820152601b60248201527f4f6e6c792073656c6c65722063616e2063616e63656c2073616c6500000000006044820152606401610290565b6000546004805460405163a9059cbb60e01b8152339281019290925260248201526001600160a01b039091169063a9059cbb906044016020604051808303816000875af11580156103b4573d6000803e3d6000fd5b505050506040513d601f19601f820116820180604052508101906103d891906106ac565b506000600455600354600254604080516001600160a01b0393841681523060208201529290911682820152517fd9b6a328868f7e8d317d22d8a06ed8853be50e49fa45fb32826e7efaef4b86519181900360600190a16104366101c6565b565b6004548111156104a05760405162461bcd60e51b815260206004820152602d60248201527f43616e277420627579206d6f726520706965636573207468616e20746865206e60448201526c756d6265722073656c6c696e6760981b6064820152608401610290565b6002546001600160a01b031633036104eb5760405162461bcd60e51b815260206004820152600e60248201526d43616e277420627579206d696e6560901b6044820152606401610290565b806005546104f991906106eb565b341461053b5760405162461bcd60e51b815260206004820152601160248201527050617920636f727265637420707269636560781b6044820152606401610290565b806004600082825461054d9190610708565b909155505060005460405163a9059cbb60e01b8152336004820152602481018390526001600160a01b039091169063a9059cbb906044016020604051808303816000875af11580156105a3573d6000803e3d6000fd5b505050506040513d601f19601f820116820180604052508101906105c791906106ac565b506002546040516001600160a01b03909116904780156108fc02916000818181858888f19350505050158015610601573d6000803e3d6000fd5b50600354600254604080516001600160a01b0393841681523060208201529290911682820152336060830152608082018390523460a0830152517fdccb5bce6e0213237e0f6a2b3fac1111566917989d8d207b69e82385a13a97599181900360c00190a1600454600003610677576106776101c6565b50565b60006020828403121561068c57600080fd5b5035919050565b6000602082840312156106a557600080fd5b5051919050565b6000602082840312156106be57600080fd5b815180151581146106ce57600080fd5b9392505050565b634e487b7160e01b600052601160045260246000fd5b8082028115828204841417610702576107026106d5565b92915050565b81810381811115610702576107026106d556fea2646970667358221220ace31402a3221cd8c32283d380ca19492fca00f4bb72a6a2facd22bcdc3b3aa364736f6c63430008110033a264697066735822122006751fcaa42109fcaa78c690d25df023b028f492425f449acc5f8575d6ef870364736f6c63430008110033",
  "immutableReferences": {
    "4876": [
      {
        "length": 32,
        "start": 8134
      }
    ],
    "4878": [
      {
        "length": 32,
        "start": 8091
      }
    ],
    "4880": [
      {
        "length": 32,
        "start": 8048
      }
    ],
    "4882": [
      {
        "length": 32,
        "start": 8217
      }
    ],
    "4884": [
      {
        "length": 32,
        "start": 8254
      }
    ],
    "4886": [
      {
        "length": 32,
        "start": 8175
      }
    ]
  },
  "source": "// SPDX-License-Identifier: MIT\r\npragma solidity ^0.8.4;\r\n\r\nimport \"../node_modules/@openzeppelin/contracts/token/ERC20/ERC20.sol\";\r\nimport \"../node_modules/@openzeppelin/contracts/token/ERC721/IERC721.sol\";\r\nimport \"../node_modules/@openzeppelin/contracts/access/Ownable.sol\";\r\nimport \"../node_modules/@openzeppelin/contracts/token/ERC20/extensions/draft-ERC20Permit.sol\";\r\nimport \"../node_modules/@openzeppelin/contracts/token/ERC721/utils/ERC721Holder.sol\";\r\nimport \"./F_NFTSale.sol\";\r\nimport \"./IF_Sale.sol\";\r\n\r\ncontract FractionalizedNFT is ERC20, Ownable, ERC20Permit, ERC721Holder {\r\n  //   \r\n  IERC721 public collection;\r\n  address public NFTCA;\r\n  uint256 public amount;\r\n  uint256 public tokenId;\r\n  address public creater;\r\n  bool public initialized = false;\r\n  IF_Sale public SaleContract;\r\n\r\n  //     \r\n  address[] public F_NFTSaleCAs;\r\n  mapping(address => address) public sellerAddress;\r\n\r\n  //      \r\n  address[] public partyAddresses;\r\n  uint256 partyAddressesLength;\r\n  mapping(address => uint256) partyAddressesIdx;\r\n\r\n  //   \r\n  uint256 public auctionEndTime;\r\n  uint256 public minimumPrice;\r\n\r\n  address public highestBidder;\r\n  uint256 public highestBid;\r\n\r\n  bool public auctionStatus = false;\r\n  bool public ended = false;\r\n\r\n  // \r\n  event CreateSale (\r\n    address F_CA,\r\n    address F_SaleCA,\r\n    address seller,\r\n    uint256 amount,\r\n    uint256 price\r\n  );\r\n  event StartAuc (\r\n    address F_CA,\r\n    uint256 minimumPrice,\r\n    bool auctionStatus\r\n  );\r\n  event CancelAuc (address F_CA, bool auctionStatus);\r\n  event HighestBidIncreased (\r\n    address F_CA, \r\n    address preBidder, \r\n    uint256 preAmount, \r\n    address bidder, \r\n    uint256 amount\r\n  );\r\n  event EndAuc (address F_CA, bool ended);\r\n  event Burn (address user, uint256 amount);\r\n  event Check (uint256 amount, address[] users, uint256 index);\r\n  \r\n  constructor(\r\n    address _NFTCA, \r\n    uint256 _tokenId, \r\n    uint256 _amount, \r\n    address _creater, \r\n    string memory _name, \r\n    string memory _symbol\r\n  ) \r\n    ERC20(_name, _symbol) ERC20Permit(_name) {\r\n      collection = IERC721(_NFTCA);\r\n      \r\n      require(collection.ownerOf(_tokenId) == _creater, \"Not owner of token\");\r\n      require(_amount > 0, \"Amount needs to be more than 0\");\r\n\r\n      NFTCA = _NFTCA;\r\n      tokenId = _tokenId;\r\n      amount = _amount;\r\n      creater = _creater;\r\n    }\r\n  \r\n  //  ,   ,      \r\n  //    NFT  setAprrovalAll  \r\n  // NFT  ()   ,    \r\n  function initialize() external {\r\n    require(msg.sender == creater, \"Can only creater\");\r\n    require(!initialized, \"Already initialized\");\r\n    collection.safeTransferFrom(msg.sender, address(this), tokenId);\r\n    initialized = true;\r\n    _mint(msg.sender, amount);\r\n  }\r\n\r\n  function createSale(uint256 _amount, uint256 _price) public returns (address) {\r\n    address F_NFTSaleCA = address(\r\n        new F_NFTSale(msg.sender, address(this), _amount, _price)\r\n    );\r\n\r\n    F_NFTSaleCAs.push(F_NFTSaleCA);\r\n\r\n    transfer(F_NFTSaleCA, _amount);\r\n\r\n    sellerAddress[F_NFTSaleCA] = msg.sender;\r\n\r\n    emit CreateSale(address(this), F_NFTSaleCA, msg.sender, _amount, _price);\r\n\r\n    return F_NFTSaleCA;\r\n  }\r\n\r\n  //    \r\n  function removeSoldoutSaleCA(address _SaleCA) external {\r\n    require(msg.sender == _SaleCA, \"Only remove myself\");\r\n\r\n    for (uint256 i = 0; i < F_NFTSaleCAs.length; i++) {\r\n      if (F_NFTSaleCAs[i] == _SaleCA) {\r\n        F_NFTSaleCAs[i] = F_NFTSaleCAs[F_NFTSaleCAs.length - 1];\r\n        F_NFTSaleCAs.pop();\r\n      }\r\n    }\r\n  }\r\n\r\n  function startAuction(uint256 _startPrice) external {\r\n    require((100 * balanceOf(msg.sender) / totalSupply()) > 50, \"Only user who own more than 50% of fractions can start auction\");\r\n    require(!ended, \"Auction Ended\");\r\n    require(!auctionStatus, \"Auctioning\");\r\n    require(highestBid == 0, \"there is someone who makes a bid\");\r\n\r\n    auctionStatus = true;\r\n    minimumPrice = _startPrice;\r\n\r\n    emit StartAuc(address(this), _startPrice, auctionStatus);\r\n  }\r\n\r\n  function cancelAuction() external {\r\n    require((100 * balanceOf(msg.sender) / totalSupply()) > 50, \"Only user who own more than 50% of fractions can cancel auction\");\r\n    require(!ended, \"Auction Ended\");\r\n    require(highestBid == 0, \"there is someone who makes a bid\");\r\n    require(auctionStatus, \"Not to auction\");\r\n\r\n    auctionStatus = false;\r\n\r\n    emit CancelAuc(address(this), auctionStatus);\r\n  }\r\n\r\n  function bid () external payable {\r\n    require(auctionStatus, \"Not to auction\");\r\n    //        ,  \r\n    require(highestBid == 0 || block.timestamp <= auctionEndTime, \"Not to auction\");\r\n    require(msg.value >= minimumPrice, \"Have to Bid higher than minimumPrice\");\r\n    require(msg.value > highestBid, \"Have to Bid higher than current bid\");\r\n\r\n    //     .\r\n    if (highestBid  != 0) {\r\n      payable(highestBidder).transfer(highestBid);\r\n    } \r\n    //       3 .\r\n    else {\r\n      uint256 threeday = 3 days;\r\n      auctionEndTime = block.timestamp + threeday;\r\n    }\r\n\r\n    emit HighestBidIncreased(address(this), highestBidder, highestBid, msg.sender, msg.value);\r\n\r\n    highestBidder = msg.sender;\r\n    highestBid = msg.value;\r\n  }\r\n\r\n  function auctionEnd() public {\r\n    require(!ended, \"Already called\");\r\n    require(block.timestamp >= auctionEndTime, \"To auction\");\r\n    require(highestBid != 0, \"Nobody makes a bid\");\r\n\r\n    ended = true;\r\n    collection.safeTransferFrom(address(this), highestBidder, tokenId);\r\n\r\n    uint256 totalFractions = totalSupply();\r\n    // address[] users = ;\r\n\r\n    uint256 totalEther = address(this).balance;\r\n    uint256 possessions;\r\n    address user;\r\n    uint256 toRedeem;\r\n\r\n    //      \r\n    while(partyAddresses.length != 0) {\r\n      possessions = balanceOf(partyAddresses[0]);\r\n      user = partyAddresses[0];\r\n      \r\n      // emit Check( possessions, partyAddresses, partyAddresses.length);\r\n      _burn(user, possessions);\r\n\r\n      toRedeem = possessions * totalEther / totalFractions;\r\n      //     ,     \r\n      if (sellerAddress[user] != address(0)) {\r\n        SaleContract = IF_Sale(user);\r\n        SaleContract.destruct();\r\n        user = sellerAddress[user];\r\n      }\r\n      payable(user).transfer(toRedeem);\r\n    }\r\n\r\n    emit EndAuc(address(this), ended);\r\n    selfdestruct(payable(creater));\r\n  }\r\n\r\n  function _afterTokenTransfer(\r\n    address from,\r\n    address to,\r\n    uint256 amount\r\n  ) internal virtual override {\r\n    super._afterTokenTransfer(from, to, amount);\r\n\r\n    if (to != address(0)) {\r\n      if (partyAddressesIdx[to] == 0) {\r\n        partyAddresses.push(to);\r\n        partyAddressesLength += 1;\r\n        //   Item partyAddressesIdx[to] == 0   Idx +1 \r\n        partyAddressesIdx[to] = partyAddressesLength; \r\n      }\r\n    }\r\n    if (from != address(0) && balanceOf(from) == 0) {\r\n      //   mapping \r\n      uint256 index = partyAddressesIdx[from];\r\n      delete partyAddressesIdx[from];\r\n      //    Item   \r\n      address lastUser = partyAddresses[partyAddressesLength - 1];\r\n      // Idx +1    -1\r\n      partyAddresses[index - 1] = lastUser;\r\n      partyAddressesLength -= 1;\r\n      partyAddresses.pop();\r\n      partyAddressesIdx[lastUser] = index;\r\n    }\r\n  }\r\n\r\n  function allSaleCAs() public view returns (address[] memory) {\r\n    return F_NFTSaleCAs;\r\n  }\r\n\r\n  function getAllAddresses() public view returns (address[] memory) {\r\n    return partyAddresses;\r\n  }\r\n\r\n  function getHighestBid() public view returns (uint256) {\r\n    return highestBid;\r\n  }\r\n\r\n  function getHighestBidder() public view returns (address) {\r\n    return highestBidder;\r\n  }\r\n\r\n  function getBalance() public view returns (uint256) {\r\n    return address(this).balance;\r\n  }\r\n}",
  "sourcePath": "D:\\ssafy\\2\\\\S07P31B102\\Blockchain\\contracts\\FractionalizedNFT.sol",
  "compiler": {
    "name": "solc",
    "version": "0.8.17+commit.8df45f5f.Emscripten.clang"
  },
  "schemaVersion": "3.4.10",
  "updatedAt": "2022-11-12T16:10:01.463Z",
  "devdoc": {
    "kind": "dev",
    "methods": {
      "DOMAIN_SEPARATOR()": {
        "details": "See {IERC20Permit-DOMAIN_SEPARATOR}."
      },
      "allowance(address,address)": {
        "details": "See {IERC20-allowance}."
      },
      "approve(address,uint256)": {
        "details": "See {IERC20-approve}. NOTE: If `amount` is the maximum `uint256`, the allowance is not updated on `transferFrom`. This is semantically equivalent to an infinite approval. Requirements: - `spender` cannot be the zero address."
      },
      "balanceOf(address)": {
        "details": "See {IERC20-balanceOf}."
      },
      "decimals()": {
        "details": "Returns the number of decimals used to get its user representation. For example, if `decimals` equals `2`, a balance of `505` tokens should be displayed to a user as `5.05` (`505 / 10 ** 2`). Tokens usually opt for a value of 18, imitating the relationship between Ether and Wei. This is the value {ERC20} uses, unless this function is overridden; NOTE: This information is only used for _display_ purposes: it in no way affects any of the arithmetic of the contract, including {IERC20-balanceOf} and {IERC20-transfer}."
      },
      "decreaseAllowance(address,uint256)": {
        "details": "Atomically decreases the allowance granted to `spender` by the caller. This is an alternative to {approve} that can be used as a mitigation for problems described in {IERC20-approve}. Emits an {Approval} event indicating the updated allowance. Requirements: - `spender` cannot be the zero address. - `spender` must have allowance for the caller of at least `subtractedValue`."
      },
      "increaseAllowance(address,uint256)": {
        "details": "Atomically increases the allowance granted to `spender` by the caller. This is an alternative to {approve} that can be used as a mitigation for problems described in {IERC20-approve}. Emits an {Approval} event indicating the updated allowance. Requirements: - `spender` cannot be the zero address."
      },
      "name()": {
        "details": "Returns the name of the token."
      },
      "nonces(address)": {
        "details": "See {IERC20Permit-nonces}."
      },
      "onERC721Received(address,address,uint256,bytes)": {
        "details": "See {IERC721Receiver-onERC721Received}. Always returns `IERC721Receiver.onERC721Received.selector`."
      },
      "owner()": {
        "details": "Returns the address of the current owner."
      },
      "permit(address,address,uint256,uint256,uint8,bytes32,bytes32)": {
        "details": "See {IERC20Permit-permit}."
      },
      "renounceOwnership()": {
        "details": "Leaves the contract without owner. It will not be possible to call `onlyOwner` functions anymore. Can only be called by the current owner. NOTE: Renouncing ownership will leave the contract without an owner, thereby removing any functionality that is only available to the owner."
      },
      "symbol()": {
        "details": "Returns the symbol of the token, usually a shorter version of the name."
      },
      "totalSupply()": {
        "details": "See {IERC20-totalSupply}."
      },
      "transfer(address,uint256)": {
        "details": "See {IERC20-transfer}. Requirements: - `to` cannot be the zero address. - the caller must have a balance of at least `amount`."
      },
      "transferFrom(address,address,uint256)": {
        "details": "See {IERC20-transferFrom}. Emits an {Approval} event indicating the updated allowance. This is not required by the EIP. See the note at the beginning of {ERC20}. NOTE: Does not update the allowance if the current allowance is the maximum `uint256`. Requirements: - `from` and `to` cannot be the zero address. - `from` must have a balance of at least `amount`. - the caller must have allowance for ``from``'s tokens of at least `amount`."
      },
      "transferOwnership(address)": {
        "details": "Transfers ownership of the contract to a new account (`newOwner`). Can only be called by the current owner."
      }
    },
    "version": 1
  },
  "userdoc": {
    "kind": "user",
    "methods": {},
    "version": 1
  }
}