{
  "contractName": "SellyERC721",
  "abi": [
    {
      "inputs": [],
      "stateMutability": "nonpayable",
      "type": "constructor"
    },
    {
      "anonymous": false,
      "inputs": [
        {
          "indexed": true,
          "internalType": "address",
          "name": "owner",
          "type": "address"
        },
        {
          "indexed": true,
          "internalType": "address",
          "name": "approved",
          "type": "address"
        },
        {
          "indexed": true,
          "internalType": "uint256",
          "name": "tokenId",
          "type": "uint256"
        }
      ],
      "name": "Approval",
      "type": "event"
    },
    {
      "anonymous": false,
      "inputs": [
        {
          "indexed": true,
          "internalType": "address",
          "name": "owner",
          "type": "address"
        },
        {
          "indexed": true,
          "internalType": "address",
          "name": "operator",
          "type": "address"
        },
        {
          "indexed": false,
          "internalType": "bool",
          "name": "approved",
          "type": "bool"
        }
      ],
      "name": "ApprovalForAll",
      "type": "event"
    },
    {
      "anonymous": false,
      "inputs": [
        {
          "indexed": true,
          "internalType": "address",
          "name": "from",
          "type": "address"
        },
        {
          "indexed": true,
          "internalType": "address",
          "name": "to",
          "type": "address"
        },
        {
          "indexed": true,
          "internalType": "uint256",
          "name": "tokenId",
          "type": "uint256"
        }
      ],
      "name": "Transfer",
      "type": "event"
    },
    {
      "anonymous": false,
      "inputs": [
        {
          "indexed": false,
          "internalType": "uint256",
          "name": "tokenId",
          "type": "uint256"
        },
        {
          "indexed": false,
          "internalType": "address",
          "name": "owner",
          "type": "address"
        },
        {
          "indexed": false,
          "internalType": "string",
          "name": "tokenURI",
          "type": "string"
        }
      ],
      "name": "mintNFT",
      "type": "event"
    },
    {
      "inputs": [
        {
          "internalType": "address",
          "name": "to",
          "type": "address"
        },
        {
          "internalType": "uint256",
          "name": "tokenId",
          "type": "uint256"
        }
      ],
      "name": "approve",
      "outputs": [],
      "stateMutability": "nonpayable",
      "type": "function"
    },
    {
      "inputs": [
        {
          "internalType": "address",
          "name": "owner",
          "type": "address"
        }
      ],
      "name": "balanceOf",
      "outputs": [
        {
          "internalType": "uint256",
          "name": "",
          "type": "uint256"
        }
      ],
      "stateMutability": "view",
      "type": "function",
      "constant": true
    },
    {
      "inputs": [
        {
          "internalType": "uint256",
          "name": "tokenId",
          "type": "uint256"
        }
      ],
      "name": "getApproved",
      "outputs": [
        {
          "internalType": "address",
          "name": "",
          "type": "address"
        }
      ],
      "stateMutability": "view",
      "type": "function",
      "constant": true
    },
    {
      "inputs": [
        {
          "internalType": "address",
          "name": "owner",
          "type": "address"
        },
        {
          "internalType": "address",
          "name": "operator",
          "type": "address"
        }
      ],
      "name": "isApprovedForAll",
      "outputs": [
        {
          "internalType": "bool",
          "name": "",
          "type": "bool"
        }
      ],
      "stateMutability": "view",
      "type": "function",
      "constant": true
    },
    {
      "inputs": [],
      "name": "name",
      "outputs": [
        {
          "internalType": "string",
          "name": "",
          "type": "string"
        }
      ],
      "stateMutability": "view",
      "type": "function",
      "constant": true
    },
    {
      "inputs": [
        {
          "internalType": "uint256",
          "name": "tokenId",
          "type": "uint256"
        }
      ],
      "name": "ownerOf",
      "outputs": [
        {
          "internalType": "address",
          "name": "",
          "type": "address"
        }
      ],
      "stateMutability": "view",
      "type": "function",
      "constant": true
    },
    {
      "inputs": [
        {
          "internalType": "address",
          "name": "from",
          "type": "address"
        },
        {
          "internalType": "address",
          "name": "to",
          "type": "address"
        },
        {
          "internalType": "uint256",
          "name": "tokenId",
          "type": "uint256"
        }
      ],
      "name": "safeTransferFrom",
      "outputs": [],
      "stateMutability": "nonpayable",
      "type": "function"
    },
    {
      "inputs": [
        {
          "internalType": "address",
          "name": "from",
          "type": "address"
        },
        {
          "internalType": "address",
          "name": "to",
          "type": "address"
        },
        {
          "internalType": "uint256",
          "name": "tokenId",
          "type": "uint256"
        },
        {
          "internalType": "bytes",
          "name": "data",
          "type": "bytes"
        }
      ],
      "name": "safeTransferFrom",
      "outputs": [],
      "stateMutability": "nonpayable",
      "type": "function"
    },
    {
      "inputs": [
        {
          "internalType": "address",
          "name": "operator",
          "type": "address"
        },
        {
          "internalType": "bool",
          "name": "approved",
          "type": "bool"
        }
      ],
      "name": "setApprovalForAll",
      "outputs": [],
      "stateMutability": "nonpayable",
      "type": "function"
    },
    {
      "inputs": [
        {
          "internalType": "bytes4",
          "name": "interfaceId",
          "type": "bytes4"
        }
      ],
      "name": "supportsInterface",
      "outputs": [
        {
          "internalType": "bool",
          "name": "",
          "type": "bool"
        }
      ],
      "stateMutability": "view",
      "type": "function",
      "constant": true
    },
    {
      "inputs": [],
      "name": "symbol",
      "outputs": [
        {
          "internalType": "string",
          "name": "",
          "type": "string"
        }
      ],
      "stateMutability": "view",
      "type": "function",
      "constant": true
    },
    {
      "inputs": [
        {
          "internalType": "uint256",
          "name": "index",
          "type": "uint256"
        }
      ],
      "name": "tokenByIndex",
      "outputs": [
        {
          "internalType": "uint256",
          "name": "",
          "type": "uint256"
        }
      ],
      "stateMutability": "view",
      "type": "function",
      "constant": true
    },
    {
      "inputs": [
        {
          "internalType": "address",
          "name": "owner",
          "type": "address"
        },
        {
          "internalType": "uint256",
          "name": "index",
          "type": "uint256"
        }
      ],
      "name": "tokenOfOwnerByIndex",
      "outputs": [
        {
          "internalType": "uint256",
          "name": "",
          "type": "uint256"
        }
      ],
      "stateMutability": "view",
      "type": "function",
      "constant": true
    },
    {
      "inputs": [],
      "name": "totalSupply",
      "outputs": [
        {
          "internalType": "uint256",
          "name": "",
          "type": "uint256"
        }
      ],
      "stateMutability": "view",
      "type": "function",
      "constant": true
    },
    {
      "inputs": [
        {
          "internalType": "address",
          "name": "from",
          "type": "address"
        },
        {
          "internalType": "address",
          "name": "to",
          "type": "address"
        },
        {
          "internalType": "uint256",
          "name": "tokenId",
          "type": "uint256"
        }
      ],
      "name": "transferFrom",
      "outputs": [],
      "stateMutability": "nonpayable",
      "type": "function"
    },
    {
      "inputs": [],
      "name": "current",
      "outputs": [
        {
          "internalType": "uint256",
          "name": "",
          "type": "uint256"
        }
      ],
      "stateMutability": "view",
      "type": "function",
      "constant": true
    },
    {
      "inputs": [
        {
          "internalType": "uint256",
          "name": "tokenId",
          "type": "uint256"
        }
      ],
      "name": "tokenURI",
      "outputs": [
        {
          "internalType": "string",
          "name": "",
          "type": "string"
        }
      ],
      "stateMutability": "view",
      "type": "function",
      "constant": true
    },
    {
      "inputs": [
        {
          "internalType": "address",
          "name": "to",
          "type": "address"
        },
        {
          "internalType": "string",
          "name": "_tokenURI",
          "type": "string"
        }
      ],
      "name": "create",
      "outputs": [
        {
          "internalType": "uint256",
          "name": "",
          "type": "uint256"
        }
      ],
      "stateMutability": "nonpayable",
      "type": "function"
    },
    {
      "inputs": [
        {
          "internalType": "string",
          "name": "_tokenURI",
          "type": "string"
        }
      ],
      "name": "createMine",
      "outputs": [
        {
          "internalType": "uint256",
          "name": "",
          "type": "uint256"
        }
      ],
      "stateMutability": "nonpayable",
      "type": "function"
    },
    {
      "inputs": [
        {
          "internalType": "address",
          "name": "_owner",
          "type": "address"
        }
      ],
      "name": "tokenIDsofWallet",
      "outputs": [
        {
          "internalType": "uint256[]",
          "name": "",
          "type": "uint256[]"
        }
      ],
      "stateMutability": "view",
      "type": "function",
      "constant": true
    },
    {
      "inputs": [
        {
          "internalType": "address",
          "name": "_owner",
          "type": "address"
        }
      ],
      "name": "tokenURIsofWallet",
      "outputs": [
        {
          "internalType": "string[]",
          "name": "",
          "type": "string[]"
        }
      ],
      "stateMutability": "view",
      "type": "function",
      "constant": true
    }
  ],
  "bytecode": "0x60806040523480156200001157600080fd5b506040518060400160405280600581526020016453656c6c7960d81b815250604051806040016040528060048152602001632118981960e11b81525081600090816200005e91906200011b565b5060016200006d82826200011b565b505050620001e7565b634e487b7160e01b600052604160045260246000fd5b600181811c90821680620000a157607f821691505b602082108103620000c257634e487b7160e01b600052602260045260246000fd5b50919050565b601f8211156200011657600081815260208120601f850160051c81016020861015620000f15750805b601f850160051c820191505b818110156200011257828155600101620000fd565b5050505b505050565b81516001600160401b0381111562000137576200013762000076565b6200014f816200014884546200008c565b84620000c8565b602080601f8311600181146200018757600084156200016e5750858301515b600019600386901b1c1916600185901b17855562000112565b600085815260208120601f198616915b82811015620001b85788860151825594840194600190910190840162000197565b5085821015620001d75787850151600019600388901b60f8161c191681555b5050505050600190811b01905550565b611ad080620001f76000396000f3fe608060405234801561001057600080fd5b50600436106101375760003560e01c80636352211e116100b8578063a15ab08d1161007c578063a15ab08d1461028d578063a22cb465146102a0578063b88d4fde146102b3578063c756be45146102c6578063c87b56dd146102d9578063e985e9c5146102ec57600080fd5b80636352211e1461023757806370a082311461024a57806382d0632c1461025d57806395d89b411461027d5780639fa6a6e31461028557600080fd5b806323b872dd116100ff57806323b872dd146101cb5780632f745c59146101de57806342842e0e146101f157806344214ad6146102045780634f6ccce71461022457600080fd5b806301ffc9a71461013c57806306fdde0314610164578063081812fc14610179578063095ea7b3146101a457806318160ddd146101b9575b600080fd5b61014f61014a3660046113b1565b610328565b60405190151581526020015b60405180910390f35b61016c610353565b60405161015b919061141b565b61018c61018736600461142e565b6103e5565b6040516001600160a01b03909116815260200161015b565b6101b76101b2366004611463565b61040c565b005b6008545b60405190815260200161015b565b6101b76101d936600461148d565b610526565b6101bd6101ec366004611463565b610557565b6101b76101ff36600461148d565b6105ed565b6102176102123660046114c9565b610608565b60405161015b91906114e4565b6101bd61023236600461142e565b6106b8565b61018c61024536600461142e565b61074b565b6101bd6102583660046114c9565b6107ab565b61027061026b3660046114c9565b610831565b60405161015b9190611546565b61016c6108cb565b600a546101bd565b6101bd61029b366004611636565b6108da565b6101b76102ae366004611684565b61095e565b6101b76102c13660046116c0565b61096d565b6101bd6102d436600461173c565b6109a5565b61016c6102e736600461142e565b610a1b565b61014f6102fa366004611771565b6001600160a01b03918216600090815260056020908152604080832093909416825291909152205460ff1690565b60006001600160e01b0319821663780e9d6360e01b148061034d575061034d82610abd565b92915050565b606060008054610362906117a4565b80601f016020809104026020016040519081016040528092919081815260200182805461038e906117a4565b80156103db5780601f106103b0576101008083540402835291602001916103db565b820191906000526020600020905b8154815290600101906020018083116103be57829003601f168201915b5050505050905090565b60006103f082610b0d565b506000908152600460205260409020546001600160a01b031690565b60006104178261074b565b9050806001600160a01b0316836001600160a01b0316036104895760405162461bcd60e51b815260206004820152602160248201527f4552433732313a20617070726f76616c20746f2063757272656e74206f776e656044820152603960f91b60648201526084015b60405180910390fd5b336001600160a01b03821614806104a557506104a581336102fa565b6105175760405162461bcd60e51b815260206004820152603e60248201527f4552433732313a20617070726f76652063616c6c6572206973206e6f7420746f60448201527f6b656e206f776e6572206e6f7220617070726f76656420666f7220616c6c00006064820152608401610480565b6105218383610b6f565b505050565b6105303382610bdd565b61054c5760405162461bcd60e51b8152600401610480906117de565b610521838383610c5c565b6000610562836107ab565b82106105c45760405162461bcd60e51b815260206004820152602b60248201527f455243373231456e756d657261626c653a206f776e657220696e646578206f7560448201526a74206f6620626f756e647360a81b6064820152608401610480565b506001600160a01b03919091166000908152600660209081526040808320938352929052205490565b6105218383836040518060200160405280600081525061096d565b60606000610615836107ab565b905060008167ffffffffffffffff8111156106325761063261158a565b60405190808252806020026020018201604052801561066557816020015b60608152602001906001900390816106505790505b50905060005b828110156106b0576106806102e78683610557565b8282815181106106925761069261182c565b602002602001018190525080806106a890611858565b91505061066b565b509392505050565b60006106c360085490565b82106107265760405162461bcd60e51b815260206004820152602c60248201527f455243373231456e756d657261626c653a20676c6f62616c20696e646578206f60448201526b7574206f6620626f756e647360a01b6064820152608401610480565b600882815481106107395761073961182c565b90600052602060002001549050919050565b6000818152600260205260408120546001600160a01b03168061034d5760405162461bcd60e51b8152602060048201526018602482015277115490cdcc8c4e881a5b9d985b1a59081d1bdad95b88125160421b6044820152606401610480565b60006001600160a01b0382166108155760405162461bcd60e51b815260206004820152602960248201527f4552433732313a2061646472657373207a65726f206973206e6f7420612076616044820152683634b21037bbb732b960b91b6064820152608401610480565b506001600160a01b031660009081526003602052604090205490565b6060600061083e836107ab565b905060008167ffffffffffffffff81111561085b5761085b61158a565b604051908082528060200260200182016040528015610884578160200160208202803683370190505b50905060005b828110156106b05761089c8582610557565b8282815181106108ae576108ae61182c565b6020908102919091010152806108c381611858565b91505061088a565b606060018054610362906117a4565b6000806108e6600a5490565b6108f1906001611871565b6000818152600b6020526040902090915061090c84826118d2565b50600a81905561091c8482610e03565b7f8f839153139787443f022f61f0970bdd4fe0e1d1422ab05e0ec211288fd6b54081858560405161094f93929190611992565b60405180910390a19392505050565b610969338383610f51565b5050565b6109773383610bdd565b6109935760405162461bcd60e51b8152600401610480906117de565b61099f8484848461101f565b50505050565b600033816109b2600a5490565b6109bd906001611871565b6000818152600b602052604090209091506109d885826118d2565b50600a8190556109e88282610e03565b7f8f839153139787443f022f61f0970bdd4fe0e1d1422ab05e0ec211288fd6b54081838660405161094f93929190611992565b6000818152600b60205260409020805460609190610a38906117a4565b80601f0160208091040260200160405190810160405280929190818152602001828054610a64906117a4565b8015610ab15780601f10610a8657610100808354040283529160200191610ab1565b820191906000526020600020905b815481529060010190602001808311610a9457829003601f168201915b50505050509050919050565b60006001600160e01b031982166380ac58cd60e01b1480610aee57506001600160e01b03198216635b5e139f60e01b145b8061034d57506301ffc9a760e01b6001600160e01b031983161461034d565b6000818152600260205260409020546001600160a01b0316610b6c5760405162461bcd60e51b8152602060048201526018602482015277115490cdcc8c4e881a5b9d985b1a59081d1bdad95b88125160421b6044820152606401610480565b50565b600081815260046020526040902080546001600160a01b0319166001600160a01b0384169081179091558190610ba48261074b565b6001600160a01b03167f8c5be1e5ebec7d5bd14f71427d1e84f3dd0314c0f7b2291e5b200ac8c7c3b92560405160405180910390a45050565b600080610be98361074b565b9050806001600160a01b0316846001600160a01b03161480610c3057506001600160a01b0380821660009081526005602090815260408083209388168352929052205460ff165b80610c545750836001600160a01b0316610c49846103e5565b6001600160a01b0316145b949350505050565b826001600160a01b0316610c6f8261074b565b6001600160a01b031614610cd35760405162461bcd60e51b815260206004820152602560248201527f4552433732313a207472616e736665722066726f6d20696e636f72726563742060448201526437bbb732b960d91b6064820152608401610480565b6001600160a01b038216610d355760405162461bcd60e51b8152602060048201526024808201527f4552433732313a207472616e7366657220746f20746865207a65726f206164646044820152637265737360e01b6064820152608401610480565b610d40838383611052565b610d4b600082610b6f565b6001600160a01b0383166000908152600360205260408120805460019290610d749084906119c5565b90915550506001600160a01b0382166000908152600360205260408120805460019290610da2908490611871565b909155505060008181526002602052604080822080546001600160a01b0319166001600160a01b0386811691821790925591518493918716917fddf252ad1be2c89b69c2b068fc378daa952ba7f163c4a11628f55a4df523b3ef91a4505050565b6001600160a01b038216610e595760405162461bcd60e51b815260206004820181905260248201527f4552433732313a206d696e7420746f20746865207a65726f20616464726573736044820152606401610480565b6000818152600260205260409020546001600160a01b031615610ebe5760405162461bcd60e51b815260206004820152601c60248201527f4552433732313a20746f6b656e20616c7265616479206d696e746564000000006044820152606401610480565b610eca60008383611052565b6001600160a01b0382166000908152600360205260408120805460019290610ef3908490611871565b909155505060008181526002602052604080822080546001600160a01b0319166001600160a01b03861690811790915590518392907fddf252ad1be2c89b69c2b068fc378daa952ba7f163c4a11628f55a4df523b3ef908290a45050565b816001600160a01b0316836001600160a01b031603610fb25760405162461bcd60e51b815260206004820152601960248201527f4552433732313a20617070726f766520746f2063616c6c6572000000000000006044820152606401610480565b6001600160a01b03838116600081815260056020908152604080832094871680845294825291829020805460ff191686151590811790915591519182527f17307eab39ab6107e8899845ad3d59bd9653f200f220920489ca2b5937696c31910160405180910390a3505050565b61102a848484610c5c565b6110368484848461110a565b61099f5760405162461bcd60e51b8152600401610480906119d8565b6001600160a01b0383166110ad576110a881600880546000838152600960205260408120829055600182018355919091527ff3f7a9fe364faab93b216da50a3214154f22a0a2b415b23a84c8169e8b636ee30155565b6110d0565b816001600160a01b0316836001600160a01b0316146110d0576110d0838261120b565b6001600160a01b0382166110e757610521816112a8565b826001600160a01b0316826001600160a01b031614610521576105218282611357565b60006001600160a01b0384163b1561120057604051630a85bd0160e11b81526001600160a01b0385169063150b7a029061114e903390899088908890600401611a2a565b6020604051808303816000875af1925050508015611189575060408051601f3d908101601f1916820190925261118691810190611a67565b60015b6111e6573d8080156111b7576040519150601f19603f3d011682016040523d82523d6000602084013e6111bc565b606091505b5080516000036111de5760405162461bcd60e51b8152600401610480906119d8565b805181602001fd5b6001600160e01b031916630a85bd0160e11b149050610c54565b506001949350505050565b60006001611218846107ab565b61122291906119c5565b600083815260076020526040902054909150808214611275576001600160a01b03841660009081526006602090815260408083208584528252808320548484528184208190558352600790915290208190555b5060009182526007602090815260408084208490556001600160a01b039094168352600681528383209183525290812055565b6008546000906112ba906001906119c5565b600083815260096020526040812054600880549394509092849081106112e2576112e261182c565b9060005260206000200154905080600883815481106113035761130361182c565b600091825260208083209091019290925582815260099091526040808220849055858252812055600880548061133b5761133b611a84565b6001900381819060005260206000200160009055905550505050565b6000611362836107ab565b6001600160a01b039093166000908152600660209081526040808320868452825280832085905593825260079052919091209190915550565b6001600160e01b031981168114610b6c57600080fd5b6000602082840312156113c357600080fd5b81356113ce8161139b565b9392505050565b6000815180845260005b818110156113fb576020818501810151868301820152016113df565b506000602082860101526020601f19601f83011685010191505092915050565b6020815260006113ce60208301846113d5565b60006020828403121561144057600080fd5b5035919050565b80356001600160a01b038116811461145e57600080fd5b919050565b6000806040838503121561147657600080fd5b61147f83611447565b946020939093013593505050565b6000806000606084860312156114a257600080fd5b6114ab84611447565b92506114b960208501611447565b9150604084013590509250925092565b6000602082840312156114db57600080fd5b6113ce82611447565b6000602080830181845280855180835260408601915060408160051b870101925083870160005b8281101561153957603f198886030184526115278583516113d5565b9450928501929085019060010161150b565b5092979650505050505050565b6020808252825182820181905260009190848201906040850190845b8181101561157e57835183529284019291840191600101611562565b50909695505050505050565b634e487b7160e01b600052604160045260246000fd5b600067ffffffffffffffff808411156115bb576115bb61158a565b604051601f8501601f19908116603f011681019082821181831017156115e3576115e361158a565b816040528093508581528686860111156115fc57600080fd5b858560208301376000602087830101525050509392505050565b600082601f83011261162757600080fd5b6113ce838335602085016115a0565b6000806040838503121561164957600080fd5b61165283611447565b9150602083013567ffffffffffffffff81111561166e57600080fd5b61167a85828601611616565b9150509250929050565b6000806040838503121561169757600080fd5b6116a083611447565b9150602083013580151581146116b557600080fd5b809150509250929050565b600080600080608085870312156116d657600080fd5b6116df85611447565b93506116ed60208601611447565b925060408501359150606085013567ffffffffffffffff81111561171057600080fd5b8501601f8101871361172157600080fd5b611730878235602084016115a0565b91505092959194509250565b60006020828403121561174e57600080fd5b813567ffffffffffffffff81111561176557600080fd5b610c5484828501611616565b6000806040838503121561178457600080fd5b61178d83611447565b915061179b60208401611447565b90509250929050565b600181811c908216806117b857607f821691505b6020821081036117d857634e487b7160e01b600052602260045260246000fd5b50919050565b6020808252602e908201527f4552433732313a2063616c6c6572206973206e6f7420746f6b656e206f776e6560408201526d1c881b9bdc88185c1c1c9bdd995960921b606082015260800190565b634e487b7160e01b600052603260045260246000fd5b634e487b7160e01b600052601160045260246000fd5b60006001820161186a5761186a611842565b5060010190565b8082018082111561034d5761034d611842565b601f82111561052157600081815260208120601f850160051c810160208610156118ab5750805b601f850160051c820191505b818110156118ca578281556001016118b7565b505050505050565b815167ffffffffffffffff8111156118ec576118ec61158a565b611900816118fa84546117a4565b84611884565b602080601f831160018114611935576000841561191d5750858301515b600019600386901b1c1916600185901b1785556118ca565b600085815260208120601f198616915b8281101561196457888601518255948401946001909101908401611945565b50858210156119825787850151600019600388901b60f8161c191681555b5050505050600190811b01905550565b8381526001600160a01b03831660208201526060604082018190526000906119bc908301846113d5565b95945050505050565b8181038181111561034d5761034d611842565b60208082526032908201527f4552433732313a207472616e7366657220746f206e6f6e20455243373231526560408201527131b2b4bb32b91034b6b83632b6b2b73a32b960711b606082015260800190565b6001600160a01b0385811682528416602082015260408101839052608060608201819052600090611a5d908301846113d5565b9695505050505050565b600060208284031215611a7957600080fd5b81516113ce8161139b565b634e487b7160e01b600052603160045260246000fdfea2646970667358221220e202cb4bcb61bfac69121f7e8a15bb63fc0d0e634889a092b1600b9fe11500d064736f6c63430008110033",
  "immutableReferences": {},
  "source": "// SPDX-License-Identifier: MIT\r\npragma solidity ^0.8.4;\r\n\r\nimport \"../node_modules/@openzeppelin/contracts/token/ERC721/extensions/ERC721Enumerable.sol\";\r\n\r\ncontract SellyERC721 is ERC721Enumerable {\r\n    uint256 private _tokenIds;\r\n    mapping(uint256 => string) tokenURIs;\r\n\r\n    event mintNFT(\r\n        uint256 tokenId,\r\n        address owner,\r\n        string tokenURI\r\n    );\r\n\r\n    constructor() ERC721(\"Selly\", \"B102\") {}\r\n\r\n    function current() public view returns (uint256) {\r\n        return _tokenIds;\r\n    }\r\n\r\n    function tokenURI(uint256 tokenId)\r\n        public\r\n        view\r\n        override\r\n        returns (string memory)\r\n    {\r\n        return tokenURIs[tokenId];\r\n    }\r\n\r\n    function create(address to, string memory _tokenURI)\r\n        public\r\n        returns (uint256)\r\n    {\r\n        uint256 tokenId = current() + 1;\r\n        tokenURIs[tokenId] = _tokenURI;\r\n        _tokenIds = tokenId;\r\n        _mint(to, tokenId);\r\n        emit mintNFT(tokenId, to, _tokenURI);\r\n        return tokenId;\r\n    }\r\n\r\n    function createMine(string memory _tokenURI)\r\n        public\r\n        returns (uint256)\r\n    {\r\n        address me = msg.sender;\r\n        uint256 tokenId = current() + 1;\r\n        tokenURIs[tokenId] = _tokenURI;\r\n        _tokenIds = tokenId;\r\n        _mint(me, tokenId);\r\n        emit mintNFT(tokenId, me, _tokenURI);\r\n        return tokenId;\r\n    }\r\n\r\n    function tokenIDsofWallet(address _owner)\r\n        public\r\n        view\r\n        returns (uint256[] memory)\r\n    {\r\n        uint256 ownerTokenCount = balanceOf(_owner);\r\n        uint256[] memory tokenIds = new uint256[](ownerTokenCount);\r\n        for (uint256 i; i < ownerTokenCount; i++) {\r\n            tokenIds[i] = tokenOfOwnerByIndex(_owner, i);\r\n        }\r\n        return tokenIds;\r\n    }\r\n\r\n    function tokenURIsofWallet(address _owner)\r\n        public\r\n        view\r\n        returns (string[] memory)\r\n    {\r\n        uint256 ownerTokenCount = balanceOf(_owner);\r\n        string[] memory URIs = new string[](ownerTokenCount);\r\n        for (uint256 i; i < ownerTokenCount; i++) {\r\n            URIs[i] = tokenURI(tokenOfOwnerByIndex(_owner, i));\r\n        }\r\n        return URIs;\r\n    }\r\n}",
  "sourcePath": "D:\\ssafy\\2\\\\S07P31B102\\Blockchain\\contracts\\SellyERC721.sol",
  "compiler": {
    "name": "solc",
    "version": "0.8.17+commit.8df45f5f.Emscripten.clang"
  },
  "schemaVersion": "3.4.10",
  "updatedAt": "2022-11-12T16:10:39.348Z",
  "networkType": "ethereum",
  "devdoc": {
    "kind": "dev",
    "methods": {
      "approve(address,uint256)": {
        "details": "See {IERC721-approve}."
      },
      "balanceOf(address)": {
        "details": "See {IERC721-balanceOf}."
      },
      "getApproved(uint256)": {
        "details": "See {IERC721-getApproved}."
      },
      "isApprovedForAll(address,address)": {
        "details": "See {IERC721-isApprovedForAll}."
      },
      "name()": {
        "details": "See {IERC721Metadata-name}."
      },
      "ownerOf(uint256)": {
        "details": "See {IERC721-ownerOf}."
      },
      "safeTransferFrom(address,address,uint256)": {
        "details": "See {IERC721-safeTransferFrom}."
      },
      "safeTransferFrom(address,address,uint256,bytes)": {
        "details": "See {IERC721-safeTransferFrom}."
      },
      "setApprovalForAll(address,bool)": {
        "details": "See {IERC721-setApprovalForAll}."
      },
      "supportsInterface(bytes4)": {
        "details": "See {IERC165-supportsInterface}."
      },
      "symbol()": {
        "details": "See {IERC721Metadata-symbol}."
      },
      "tokenByIndex(uint256)": {
        "details": "See {IERC721Enumerable-tokenByIndex}."
      },
      "tokenOfOwnerByIndex(address,uint256)": {
        "details": "See {IERC721Enumerable-tokenOfOwnerByIndex}."
      },
      "tokenURI(uint256)": {
        "details": "See {IERC721Metadata-tokenURI}."
      },
      "totalSupply()": {
        "details": "See {IERC721Enumerable-totalSupply}."
      },
      "transferFrom(address,address,uint256)": {
        "details": "See {IERC721-transferFrom}."
      }
    },
    "version": 1
  },
  "userdoc": {
    "kind": "user",
    "methods": {},
    "version": 1
  }
}