{
  "contractName": "SellyERC721",
  "abi": [
    {
      "inputs": [],
      "stateMutability": "nonpayable",
      "type": "constructor"
    },
    {
      "anonymous": false,
      "inputs": [
        {
          "indexed": true,
          "internalType": "address",
          "name": "owner",
          "type": "address"
        },
        {
          "indexed": true,
          "internalType": "address",
          "name": "approved",
          "type": "address"
        },
        {
          "indexed": true,
          "internalType": "uint256",
          "name": "tokenId",
          "type": "uint256"
        }
      ],
      "name": "Approval",
      "type": "event"
    },
    {
      "anonymous": false,
      "inputs": [
        {
          "indexed": true,
          "internalType": "address",
          "name": "owner",
          "type": "address"
        },
        {
          "indexed": true,
          "internalType": "address",
          "name": "operator",
          "type": "address"
        },
        {
          "indexed": false,
          "internalType": "bool",
          "name": "approved",
          "type": "bool"
        }
      ],
      "name": "ApprovalForAll",
      "type": "event"
    },
    {
      "anonymous": false,
      "inputs": [
        {
          "indexed": true,
          "internalType": "address",
          "name": "from",
          "type": "address"
        },
        {
          "indexed": true,
          "internalType": "address",
          "name": "to",
          "type": "address"
        },
        {
          "indexed": true,
          "internalType": "uint256",
          "name": "tokenId",
          "type": "uint256"
        }
      ],
      "name": "Transfer",
      "type": "event"
    },
    {
      "anonymous": false,
      "inputs": [
        {
          "indexed": true,
          "internalType": "uint256",
          "name": "_tokenId",
          "type": "uint256"
        },
        {
          "indexed": true,
          "internalType": "address",
          "name": "_owner",
          "type": "address"
        },
        {
          "indexed": false,
          "internalType": "string",
          "name": "_tokenURI",
          "type": "string"
        }
      ],
      "name": "mintNFT",
      "type": "event"
    },
    {
      "inputs": [
        {
          "internalType": "address",
          "name": "to",
          "type": "address"
        },
        {
          "internalType": "uint256",
          "name": "tokenId",
          "type": "uint256"
        }
      ],
      "name": "approve",
      "outputs": [],
      "stateMutability": "nonpayable",
      "type": "function"
    },
    {
      "inputs": [
        {
          "internalType": "address",
          "name": "owner",
          "type": "address"
        }
      ],
      "name": "balanceOf",
      "outputs": [
        {
          "internalType": "uint256",
          "name": "",
          "type": "uint256"
        }
      ],
      "stateMutability": "view",
      "type": "function"
    },
    {
      "inputs": [
        {
          "internalType": "uint256",
          "name": "tokenId",
          "type": "uint256"
        }
      ],
      "name": "getApproved",
      "outputs": [
        {
          "internalType": "address",
          "name": "",
          "type": "address"
        }
      ],
      "stateMutability": "view",
      "type": "function"
    },
    {
      "inputs": [
        {
          "internalType": "address",
          "name": "owner",
          "type": "address"
        },
        {
          "internalType": "address",
          "name": "operator",
          "type": "address"
        }
      ],
      "name": "isApprovedForAll",
      "outputs": [
        {
          "internalType": "bool",
          "name": "",
          "type": "bool"
        }
      ],
      "stateMutability": "view",
      "type": "function"
    },
    {
      "inputs": [],
      "name": "name",
      "outputs": [
        {
          "internalType": "string",
          "name": "",
          "type": "string"
        }
      ],
      "stateMutability": "view",
      "type": "function"
    },
    {
      "inputs": [
        {
          "internalType": "uint256",
          "name": "tokenId",
          "type": "uint256"
        }
      ],
      "name": "ownerOf",
      "outputs": [
        {
          "internalType": "address",
          "name": "",
          "type": "address"
        }
      ],
      "stateMutability": "view",
      "type": "function"
    },
    {
      "inputs": [
        {
          "internalType": "address",
          "name": "from",
          "type": "address"
        },
        {
          "internalType": "address",
          "name": "to",
          "type": "address"
        },
        {
          "internalType": "uint256",
          "name": "tokenId",
          "type": "uint256"
        }
      ],
      "name": "safeTransferFrom",
      "outputs": [],
      "stateMutability": "nonpayable",
      "type": "function"
    },
    {
      "inputs": [
        {
          "internalType": "address",
          "name": "from",
          "type": "address"
        },
        {
          "internalType": "address",
          "name": "to",
          "type": "address"
        },
        {
          "internalType": "uint256",
          "name": "tokenId",
          "type": "uint256"
        },
        {
          "internalType": "bytes",
          "name": "data",
          "type": "bytes"
        }
      ],
      "name": "safeTransferFrom",
      "outputs": [],
      "stateMutability": "nonpayable",
      "type": "function"
    },
    {
      "inputs": [
        {
          "internalType": "address",
          "name": "operator",
          "type": "address"
        },
        {
          "internalType": "bool",
          "name": "approved",
          "type": "bool"
        }
      ],
      "name": "setApprovalForAll",
      "outputs": [],
      "stateMutability": "nonpayable",
      "type": "function"
    },
    {
      "inputs": [
        {
          "internalType": "bytes4",
          "name": "interfaceId",
          "type": "bytes4"
        }
      ],
      "name": "supportsInterface",
      "outputs": [
        {
          "internalType": "bool",
          "name": "",
          "type": "bool"
        }
      ],
      "stateMutability": "view",
      "type": "function"
    },
    {
      "inputs": [],
      "name": "symbol",
      "outputs": [
        {
          "internalType": "string",
          "name": "",
          "type": "string"
        }
      ],
      "stateMutability": "view",
      "type": "function"
    },
    {
      "inputs": [
        {
          "internalType": "uint256",
          "name": "index",
          "type": "uint256"
        }
      ],
      "name": "tokenByIndex",
      "outputs": [
        {
          "internalType": "uint256",
          "name": "",
          "type": "uint256"
        }
      ],
      "stateMutability": "view",
      "type": "function"
    },
    {
      "inputs": [
        {
          "internalType": "address",
          "name": "owner",
          "type": "address"
        },
        {
          "internalType": "uint256",
          "name": "index",
          "type": "uint256"
        }
      ],
      "name": "tokenOfOwnerByIndex",
      "outputs": [
        {
          "internalType": "uint256",
          "name": "",
          "type": "uint256"
        }
      ],
      "stateMutability": "view",
      "type": "function"
    },
    {
      "inputs": [],
      "name": "totalSupply",
      "outputs": [
        {
          "internalType": "uint256",
          "name": "",
          "type": "uint256"
        }
      ],
      "stateMutability": "view",
      "type": "function"
    },
    {
      "inputs": [
        {
          "internalType": "address",
          "name": "from",
          "type": "address"
        },
        {
          "internalType": "address",
          "name": "to",
          "type": "address"
        },
        {
          "internalType": "uint256",
          "name": "tokenId",
          "type": "uint256"
        }
      ],
      "name": "transferFrom",
      "outputs": [],
      "stateMutability": "nonpayable",
      "type": "function"
    },
    {
      "inputs": [],
      "name": "current",
      "outputs": [
        {
          "internalType": "uint256",
          "name": "",
          "type": "uint256"
        }
      ],
      "stateMutability": "view",
      "type": "function"
    },
    {
      "inputs": [
        {
          "internalType": "uint256",
          "name": "tokenId",
          "type": "uint256"
        }
      ],
      "name": "tokenURI",
      "outputs": [
        {
          "internalType": "string",
          "name": "",
          "type": "string"
        }
      ],
      "stateMutability": "view",
      "type": "function"
    },
    {
      "inputs": [
        {
          "internalType": "address",
          "name": "to",
          "type": "address"
        },
        {
          "internalType": "string",
          "name": "_tokenURI",
          "type": "string"
        }
      ],
      "name": "create",
      "outputs": [
        {
          "internalType": "uint256",
          "name": "",
          "type": "uint256"
        }
      ],
      "stateMutability": "nonpayable",
      "type": "function"
    },
    {
      "inputs": [
        {
          "internalType": "string",
          "name": "_tokenURI",
          "type": "string"
        }
      ],
      "name": "createMine",
      "outputs": [
        {
          "internalType": "uint256",
          "name": "",
          "type": "uint256"
        }
      ],
      "stateMutability": "nonpayable",
      "type": "function"
    },
    {
      "inputs": [
        {
          "internalType": "address",
          "name": "_owner",
          "type": "address"
        }
      ],
      "name": "tokenIDsofWallet",
      "outputs": [
        {
          "internalType": "uint256[]",
          "name": "",
          "type": "uint256[]"
        }
      ],
      "stateMutability": "view",
      "type": "function"
    },
    {
      "inputs": [
        {
          "internalType": "address",
          "name": "_owner",
          "type": "address"
        }
      ],
      "name": "tokenURIsofWallet",
      "outputs": [
        {
          "internalType": "string[]",
          "name": "",
          "type": "string[]"
        }
      ],
      "stateMutability": "view",
      "type": "function"
    }
  ],
  "bytecode": "0x60806040523480156200001157600080fd5b506040518060400160405280600581526020016453656c6c7960d81b815250604051806040016040528060048152602001632118981960e11b81525081600090816200005e91906200011b565b5060016200006d82826200011b565b505050620001e7565b634e487b7160e01b600052604160045260246000fd5b600181811c90821680620000a157607f821691505b602082108103620000c257634e487b7160e01b600052602260045260246000fd5b50919050565b601f8211156200011657600081815260208120601f850160051c81016020861015620000f15750805b601f850160051c820191505b818110156200011257828155600101620000fd565b5050505b505050565b81516001600160401b0381111562000137576200013762000076565b6200014f816200014884546200008c565b84620000c8565b602080601f8311600181146200018757600084156200016e5750858301515b600019600386901b1c1916600185901b17855562000112565b600085815260208120601f198616915b82811015620001b85788860151825594840194600190910190840162000197565b5085821015620001d75787850151600019600388901b60f8161c191681555b5050505050600190811b01905550565b611a2880620001f76000396000f3fe608060405234801561001057600080fd5b50600436106101375760003560e01c80636352211e116100b8578063a15ab08d1161007c578063a15ab08d1461028d578063a22cb465146102a0578063b88d4fde146102b3578063c756be45146102c6578063c87b56dd146102d9578063e985e9c5146102ec57600080fd5b80636352211e1461023757806370a082311461024a57806382d0632c1461025d57806395d89b411461027d5780639fa6a6e31461028557600080fd5b806323b872dd116100ff57806323b872dd146101cb5780632f745c59146101de57806342842e0e146101f157806344214ad6146102045780634f6ccce71461022457600080fd5b806301ffc9a71461013c57806306fdde0314610164578063081812fc14610179578063095ea7b3146101a457806318160ddd146101b9575b600080fd5b61014f61014a366004611343565b610328565b60405190151581526020015b60405180910390f35b61016c610353565b60405161015b91906113a6565b61018c6101873660046113b9565b6103e5565b6040516001600160a01b03909116815260200161015b565b6101b76101b23660046113ee565b61040c565b005b6008545b60405190815260200161015b565b6101b76101d9366004611418565b610526565b6101bd6101ec3660046113ee565b610557565b6101b76101ff366004611418565b6105ed565b610217610212366004611454565b610608565b60405161015b919061146f565b6101bd6102323660046113b9565b6106b8565b61018c6102453660046113b9565b61074b565b6101bd610258366004611454565b6107ab565b61027061026b366004611454565b610831565b60405161015b91906114d1565b61016c6108cb565b600a546101bd565b6101bd61029b3660046115c1565b6108da565b6101b76102ae36600461160f565b610923565b6101b76102c136600461164b565b610932565b6101bd6102d43660046116c7565b61096a565b61016c6102e73660046113b9565b6109ad565b61014f6102fa3660046116fc565b6001600160a01b03918216600090815260056020908152604080832093909416825291909152205460ff1690565b60006001600160e01b0319821663780e9d6360e01b148061034d575061034d82610a4f565b92915050565b6060600080546103629061172f565b80601f016020809104026020016040519081016040528092919081815260200182805461038e9061172f565b80156103db5780601f106103b0576101008083540402835291602001916103db565b820191906000526020600020905b8154815290600101906020018083116103be57829003601f168201915b5050505050905090565b60006103f082610a9f565b506000908152600460205260409020546001600160a01b031690565b60006104178261074b565b9050806001600160a01b0316836001600160a01b0316036104895760405162461bcd60e51b815260206004820152602160248201527f4552433732313a20617070726f76616c20746f2063757272656e74206f776e656044820152603960f91b60648201526084015b60405180910390fd5b336001600160a01b03821614806104a557506104a581336102fa565b6105175760405162461bcd60e51b815260206004820152603e60248201527f4552433732313a20617070726f76652063616c6c6572206973206e6f7420746f60448201527f6b656e206f776e6572206e6f7220617070726f76656420666f7220616c6c00006064820152608401610480565b6105218383610b01565b505050565b6105303382610b6f565b61054c5760405162461bcd60e51b815260040161048090611769565b610521838383610bee565b6000610562836107ab565b82106105c45760405162461bcd60e51b815260206004820152602b60248201527f455243373231456e756d657261626c653a206f776e657220696e646578206f7560448201526a74206f6620626f756e647360a81b6064820152608401610480565b506001600160a01b03919091166000908152600660209081526040808320938352929052205490565b61052183838360405180602001604052806000815250610932565b60606000610615836107ab565b905060008167ffffffffffffffff81111561063257610632611515565b60405190808252806020026020018201604052801561066557816020015b60608152602001906001900390816106505790505b50905060005b828110156106b0576106806102e78683610557565b828281518110610692576106926117b7565b602002602001018190525080806106a8906117e3565b91505061066b565b509392505050565b60006106c360085490565b82106107265760405162461bcd60e51b815260206004820152602c60248201527f455243373231456e756d657261626c653a20676c6f62616c20696e646578206f60448201526b7574206f6620626f756e647360a01b6064820152608401610480565b60088281548110610739576107396117b7565b90600052602060002001549050919050565b6000818152600260205260408120546001600160a01b03168061034d5760405162461bcd60e51b8152602060048201526018602482015277115490cdcc8c4e881a5b9d985b1a59081d1bdad95b88125160421b6044820152606401610480565b60006001600160a01b0382166108155760405162461bcd60e51b815260206004820152602960248201527f4552433732313a2061646472657373207a65726f206973206e6f7420612076616044820152683634b21037bbb732b960b91b6064820152608401610480565b506001600160a01b031660009081526003602052604090205490565b6060600061083e836107ab565b905060008167ffffffffffffffff81111561085b5761085b611515565b604051908082528060200260200182016040528015610884578160200160208202803683370190505b50905060005b828110156106b05761089c8582610557565b8282815181106108ae576108ae6117b7565b6020908102919091010152806108c3816117e3565b91505061088a565b6060600180546103629061172f565b6000806108e6600a5490565b6108f19060016117fc565b6000818152600b6020526040902090915061090c848261185d565b50600a81905561091c8482610d95565b9392505050565b61092e338383610ee3565b5050565b61093c3383610b6f565b6109585760405162461bcd60e51b815260040161048090611769565b61096484848484610fb1565b50505050565b60003381610977600a5490565b6109829060016117fc565b6000818152600b6020526040902090915061099d858261185d565b50600a81905561091c8282610d95565b6000818152600b602052604090208054606091906109ca9061172f565b80601f01602080910402602001604051908101604052809291908181526020018280546109f69061172f565b8015610a435780601f10610a1857610100808354040283529160200191610a43565b820191906000526020600020905b815481529060010190602001808311610a2657829003601f168201915b50505050509050919050565b60006001600160e01b031982166380ac58cd60e01b1480610a8057506001600160e01b03198216635b5e139f60e01b145b8061034d57506301ffc9a760e01b6001600160e01b031983161461034d565b6000818152600260205260409020546001600160a01b0316610afe5760405162461bcd60e51b8152602060048201526018602482015277115490cdcc8c4e881a5b9d985b1a59081d1bdad95b88125160421b6044820152606401610480565b50565b600081815260046020526040902080546001600160a01b0319166001600160a01b0384169081179091558190610b368261074b565b6001600160a01b03167f8c5be1e5ebec7d5bd14f71427d1e84f3dd0314c0f7b2291e5b200ac8c7c3b92560405160405180910390a45050565b600080610b7b8361074b565b9050806001600160a01b0316846001600160a01b03161480610bc257506001600160a01b0380821660009081526005602090815260408083209388168352929052205460ff165b80610be65750836001600160a01b0316610bdb846103e5565b6001600160a01b0316145b949350505050565b826001600160a01b0316610c018261074b565b6001600160a01b031614610c655760405162461bcd60e51b815260206004820152602560248201527f4552433732313a207472616e736665722066726f6d20696e636f72726563742060448201526437bbb732b960d91b6064820152608401610480565b6001600160a01b038216610cc75760405162461bcd60e51b8152602060048201526024808201527f4552433732313a207472616e7366657220746f20746865207a65726f206164646044820152637265737360e01b6064820152608401610480565b610cd2838383610fe4565b610cdd600082610b01565b6001600160a01b0383166000908152600360205260408120805460019290610d0690849061191d565b90915550506001600160a01b0382166000908152600360205260408120805460019290610d349084906117fc565b909155505060008181526002602052604080822080546001600160a01b0319166001600160a01b0386811691821790925591518493918716917fddf252ad1be2c89b69c2b068fc378daa952ba7f163c4a11628f55a4df523b3ef91a4505050565b6001600160a01b038216610deb5760405162461bcd60e51b815260206004820181905260248201527f4552433732313a206d696e7420746f20746865207a65726f20616464726573736044820152606401610480565b6000818152600260205260409020546001600160a01b031615610e505760405162461bcd60e51b815260206004820152601c60248201527f4552433732313a20746f6b656e20616c7265616479206d696e746564000000006044820152606401610480565b610e5c60008383610fe4565b6001600160a01b0382166000908152600360205260408120805460019290610e859084906117fc565b909155505060008181526002602052604080822080546001600160a01b0319166001600160a01b03861690811790915590518392907fddf252ad1be2c89b69c2b068fc378daa952ba7f163c4a11628f55a4df523b3ef908290a45050565b816001600160a01b0316836001600160a01b031603610f445760405162461bcd60e51b815260206004820152601960248201527f4552433732313a20617070726f766520746f2063616c6c6572000000000000006044820152606401610480565b6001600160a01b03838116600081815260056020908152604080832094871680845294825291829020805460ff191686151590811790915591519182527f17307eab39ab6107e8899845ad3d59bd9653f200f220920489ca2b5937696c31910160405180910390a3505050565b610fbc848484610bee565b610fc88484848461109c565b6109645760405162461bcd60e51b815260040161048090611930565b6001600160a01b03831661103f5761103a81600880546000838152600960205260408120829055600182018355919091527ff3f7a9fe364faab93b216da50a3214154f22a0a2b415b23a84c8169e8b636ee30155565b611062565b816001600160a01b0316836001600160a01b03161461106257611062838261119d565b6001600160a01b038216611079576105218161123a565b826001600160a01b0316826001600160a01b0316146105215761052182826112e9565b60006001600160a01b0384163b1561119257604051630a85bd0160e11b81526001600160a01b0385169063150b7a02906110e0903390899088908890600401611982565b6020604051808303816000875af192505050801561111b575060408051601f3d908101601f19168201909252611118918101906119bf565b60015b611178573d808015611149576040519150601f19603f3d011682016040523d82523d6000602084013e61114e565b606091505b5080516000036111705760405162461bcd60e51b815260040161048090611930565b805181602001fd5b6001600160e01b031916630a85bd0160e11b149050610be6565b506001949350505050565b600060016111aa846107ab565b6111b4919061191d565b600083815260076020526040902054909150808214611207576001600160a01b03841660009081526006602090815260408083208584528252808320548484528184208190558352600790915290208190555b5060009182526007602090815260408084208490556001600160a01b039094168352600681528383209183525290812055565b60085460009061124c9060019061191d565b60008381526009602052604081205460088054939450909284908110611274576112746117b7565b906000526020600020015490508060088381548110611295576112956117b7565b60009182526020808320909101929092558281526009909152604080822084905585825281205560088054806112cd576112cd6119dc565b6001900381819060005260206000200160009055905550505050565b60006112f4836107ab565b6001600160a01b039093166000908152600660209081526040808320868452825280832085905593825260079052919091209190915550565b6001600160e01b031981168114610afe57600080fd5b60006020828403121561135557600080fd5b813561091c8161132d565b6000815180845260005b818110156113865760208185018101518683018201520161136a565b506000602082860101526020601f19601f83011685010191505092915050565b60208152600061091c6020830184611360565b6000602082840312156113cb57600080fd5b5035919050565b80356001600160a01b03811681146113e957600080fd5b919050565b6000806040838503121561140157600080fd5b61140a836113d2565b946020939093013593505050565b60008060006060848603121561142d57600080fd5b611436846113d2565b9250611444602085016113d2565b9150604084013590509250925092565b60006020828403121561146657600080fd5b61091c826113d2565b6000602080830181845280855180835260408601915060408160051b870101925083870160005b828110156114c457603f198886030184526114b2858351611360565b94509285019290850190600101611496565b5092979650505050505050565b6020808252825182820181905260009190848201906040850190845b81811015611509578351835292840192918401916001016114ed565b50909695505050505050565b634e487b7160e01b600052604160045260246000fd5b600067ffffffffffffffff8084111561154657611546611515565b604051601f8501601f19908116603f0116810190828211818310171561156e5761156e611515565b8160405280935085815286868601111561158757600080fd5b858560208301376000602087830101525050509392505050565b600082601f8301126115b257600080fd5b61091c8383356020850161152b565b600080604083850312156115d457600080fd5b6115dd836113d2565b9150602083013567ffffffffffffffff8111156115f957600080fd5b611605858286016115a1565b9150509250929050565b6000806040838503121561162257600080fd5b61162b836113d2565b91506020830135801515811461164057600080fd5b809150509250929050565b6000806000806080858703121561166157600080fd5b61166a856113d2565b9350611678602086016113d2565b925060408501359150606085013567ffffffffffffffff81111561169b57600080fd5b8501601f810187136116ac57600080fd5b6116bb8782356020840161152b565b91505092959194509250565b6000602082840312156116d957600080fd5b813567ffffffffffffffff8111156116f057600080fd5b610be6848285016115a1565b6000806040838503121561170f57600080fd5b611718836113d2565b9150611726602084016113d2565b90509250929050565b600181811c9082168061174357607f821691505b60208210810361176357634e487b7160e01b600052602260045260246000fd5b50919050565b6020808252602e908201527f4552433732313a2063616c6c6572206973206e6f7420746f6b656e206f776e6560408201526d1c881b9bdc88185c1c1c9bdd995960921b606082015260800190565b634e487b7160e01b600052603260045260246000fd5b634e487b7160e01b600052601160045260246000fd5b6000600182016117f5576117f56117cd565b5060010190565b8082018082111561034d5761034d6117cd565b601f82111561052157600081815260208120601f850160051c810160208610156118365750805b601f850160051c820191505b8181101561185557828155600101611842565b505050505050565b815167ffffffffffffffff81111561187757611877611515565b61188b81611885845461172f565b8461180f565b602080601f8311600181146118c057600084156118a85750858301515b600019600386901b1c1916600185901b178555611855565b600085815260208120601f198616915b828110156118ef578886015182559484019460019091019084016118d0565b508582101561190d5787850151600019600388901b60f8161c191681555b5050505050600190811b01905550565b8181038181111561034d5761034d6117cd565b60208082526032908201527f4552433732313a207472616e7366657220746f206e6f6e20455243373231526560408201527131b2b4bb32b91034b6b83632b6b2b73a32b960711b606082015260800190565b6001600160a01b03858116825284166020820152604081018390526080606082018190526000906119b590830184611360565b9695505050505050565b6000602082840312156119d157600080fd5b815161091c8161132d565b634e487b7160e01b600052603160045260246000fdfea26469706673582212204d6e0bb270834670d7fb40bab57588805dbff137d135ff756d826c09e468c8fe64736f6c63430008110033",
  "immutableReferences": {},
  "source": "// SPDX-License-Identifier: MIT\r\npragma solidity ^0.8.4;\r\n\r\nimport \"../node_modules/@openzeppelin/contracts/token/ERC721/extensions/ERC721Enumerable.sol\";\r\n\r\ncontract SellyERC721 is ERC721Enumerable {\r\n    uint256 private _tokenIds;\r\n    mapping(uint256 => string) tokenURIs;\r\n\r\n    event mintNFT(\r\n        uint256 indexed _tokenId,\r\n        address indexed _owner,\r\n        string _tokenURI\r\n    );\r\n\r\n    constructor() ERC721(\"Selly\", \"B102\") {}\r\n\r\n    function current() public view returns (uint256) {\r\n        return _tokenIds;\r\n    }\r\n\r\n    function tokenURI(uint256 tokenId)\r\n        public\r\n        view\r\n        override\r\n        returns (string memory)\r\n    {\r\n        return tokenURIs[tokenId];\r\n    }\r\n\r\n    function create(address to, string memory _tokenURI)\r\n        public\r\n        returns (uint256)\r\n    {\r\n        uint256 tokenId = current() + 1;\r\n        tokenURIs[tokenId] = _tokenURI;\r\n        _tokenIds = tokenId;\r\n        _mint(to, tokenId);\r\n        // emit mintNFT(tokenId, to, _tokenURI);\r\n        return tokenId;\r\n    }\r\n\r\n    function createMine(string memory _tokenURI)\r\n        public\r\n        returns (uint256)\r\n    {\r\n        address me = msg.sender;\r\n        uint256 tokenId = current() + 1;\r\n        tokenURIs[tokenId] = _tokenURI;\r\n        _tokenIds = tokenId;\r\n        _mint(me, tokenId);\r\n        // emit mintNFT(tokenId, me, _tokenURI);\r\n        return tokenId;\r\n    }\r\n\r\n    function tokenIDsofWallet(address _owner)\r\n        public\r\n        view\r\n        returns (uint256[] memory)\r\n    {\r\n        uint256 ownerTokenCount = balanceOf(_owner);\r\n        uint256[] memory tokenIds = new uint256[](ownerTokenCount);\r\n        for (uint256 i; i < ownerTokenCount; i++) {\r\n            tokenIds[i] = tokenOfOwnerByIndex(_owner, i);\r\n        }\r\n        return tokenIds;\r\n    }\r\n\r\n    function tokenURIsofWallet(address _owner)\r\n        public\r\n        view\r\n        returns (string[] memory)\r\n    {\r\n        uint256 ownerTokenCount = balanceOf(_owner);\r\n        string[] memory URIs = new string[](ownerTokenCount);\r\n        for (uint256 i; i < ownerTokenCount; i++) {\r\n            URIs[i] = tokenURI(tokenOfOwnerByIndex(_owner, i));\r\n        }\r\n        return URIs;\r\n    }\r\n}",
  "sourcePath": "C:\\Users\\multicampus\\Desktop\\\\S07P31B102\\Blockchain\\contracts\\SellyERC721.sol",
  "compiler": {
    "name": "solc",
    "version": "0.8.17+commit.8df45f5f.Emscripten.clang"
  },
  "schemaVersion": "3.4.10",
  "updatedAt": "2022-11-04T04:33:55.463Z",
  "devdoc": {
    "kind": "dev",
    "methods": {
      "approve(address,uint256)": {
        "details": "See {IERC721-approve}."
      },
      "balanceOf(address)": {
        "details": "See {IERC721-balanceOf}."
      },
      "getApproved(uint256)": {
        "details": "See {IERC721-getApproved}."
      },
      "isApprovedForAll(address,address)": {
        "details": "See {IERC721-isApprovedForAll}."
      },
      "name()": {
        "details": "See {IERC721Metadata-name}."
      },
      "ownerOf(uint256)": {
        "details": "See {IERC721-ownerOf}."
      },
      "safeTransferFrom(address,address,uint256)": {
        "details": "See {IERC721-safeTransferFrom}."
      },
      "safeTransferFrom(address,address,uint256,bytes)": {
        "details": "See {IERC721-safeTransferFrom}."
      },
      "setApprovalForAll(address,bool)": {
        "details": "See {IERC721-setApprovalForAll}."
      },
      "supportsInterface(bytes4)": {
        "details": "See {IERC165-supportsInterface}."
      },
      "symbol()": {
        "details": "See {IERC721Metadata-symbol}."
      },
      "tokenByIndex(uint256)": {
        "details": "See {IERC721Enumerable-tokenByIndex}."
      },
      "tokenOfOwnerByIndex(address,uint256)": {
        "details": "See {IERC721Enumerable-tokenOfOwnerByIndex}."
      },
      "tokenURI(uint256)": {
        "details": "See {IERC721Metadata-tokenURI}."
      },
      "totalSupply()": {
        "details": "See {IERC721Enumerable-totalSupply}."
      },
      "transferFrom(address,address,uint256)": {
        "details": "See {IERC721-transferFrom}."
      }
    },
    "version": 1
  },
  "userdoc": {
    "kind": "user",
    "methods": {},
    "version": 1
  }
}